{
  "address": "0x34DfD5675c12b0d182a8cc2296EfC30296bCF979",
  "abi": [
    {
      "inputs": [
        {
          "internalType": "contract IERC20",
          "name": "token_",
          "type": "address"
        }
      ],
      "stateMutability": "nonpayable",
      "type": "constructor"
    },
    {
      "anonymous": false,
      "inputs": [
        {
          "indexed": true,
          "internalType": "address",
          "name": "previousOwner",
          "type": "address"
        },
        {
          "indexed": true,
          "internalType": "address",
          "name": "newOwner",
          "type": "address"
        }
      ],
      "name": "OwnershipTransferred",
      "type": "event"
    },
    {
      "inputs": [
        {
          "internalType": "address",
          "name": "contractAddress",
          "type": "address"
        }
      ],
      "name": "approveForAddingLiquidity",
      "outputs": [],
      "stateMutability": "nonpayable",
      "type": "function"
    },
    {
      "inputs": [],
      "name": "owner",
      "outputs": [
        {
          "internalType": "address",
          "name": "",
          "type": "address"
        }
      ],
      "stateMutability": "view",
      "type": "function"
    },
    {
      "inputs": [],
      "name": "renounceOwnership",
      "outputs": [],
      "stateMutability": "nonpayable",
      "type": "function"
    },
    {
      "inputs": [],
      "name": "token",
      "outputs": [
        {
          "internalType": "contract IERC20",
          "name": "",
          "type": "address"
        }
      ],
      "stateMutability": "view",
      "type": "function"
    },
    {
      "inputs": [
        {
          "internalType": "address",
          "name": "newOwner",
          "type": "address"
        }
      ],
      "name": "transferOwnership",
      "outputs": [],
      "stateMutability": "nonpayable",
      "type": "function"
    }
  ],
  "transactionHash": "0x407be2609de29ee8713d8e6abdb6a7b36f05e624b222751c9d64272dbbb84771",
  "args": [
    "0xd130E6c157EbcEcc619Cde6D8919b1F3b993e1c0"
  ],
  "numDeployments": 2,
  "solcInputHash": "c088c85e77389f55acfb9bbba5a4baa0",
  "bytecode": "0x608060405234801561001057600080fd5b506040516104a73803806104a783398101604081905261002f91610113565b610038336100c3565b6001600160a01b03811661009e5760405162461bcd60e51b815260206004820152602360248201527f546f6b656e20616464726573732063616e27742062652061646472657373207a60448201526265726f60e81b606482015260840160405180910390fd5b600180546001600160a01b0319166001600160a01b0392909216919091179055610143565b600080546001600160a01b038381166001600160a01b0319831681178455604051919092169283917f8be0079c531659141344cd1fd0a4f28419497f9722a3daafe3b4186f6b6457e09190a35050565b60006020828403121561012557600080fd5b81516001600160a01b038116811461013c57600080fd5b9392505050565b610355806101526000396000f3fe608060405234801561001057600080fd5b50600436106100575760003560e01c8063715018a61461005c5780638c96212f146100665780638da5cb5b14610079578063f2fde38b146100a2578063fc0c546a146100b5575b600080fd5b6100646100c8565b005b610064610074366004610298565b610107565b6000546001600160a01b03165b6040516001600160a01b03909116815260200160405180910390f35b6100646100b0366004610298565b6101ad565b600154610086906001600160a01b031681565b6000546001600160a01b031633146100fb5760405162461bcd60e51b81526004016100f2906102c8565b60405180910390fd5b6101056000610248565b565b6000546001600160a01b031633146101315760405162461bcd60e51b81526004016100f2906102c8565b60015460405163095ea7b360e01b81526001600160a01b03838116600483015260001960248301529091169063095ea7b3906044016020604051808303816000875af1158015610185573d6000803e3d6000fd5b505050506040513d601f19601f820116820180604052508101906101a991906102fd565b5050565b6000546001600160a01b031633146101d75760405162461bcd60e51b81526004016100f2906102c8565b6001600160a01b03811661023c5760405162461bcd60e51b815260206004820152602660248201527f4f776e61626c653a206e6577206f776e657220697320746865207a65726f206160448201526564647265737360d01b60648201526084016100f2565b61024581610248565b50565b600080546001600160a01b038381166001600160a01b0319831681178455604051919092169283917f8be0079c531659141344cd1fd0a4f28419497f9722a3daafe3b4186f6b6457e09190a35050565b6000602082840312156102aa57600080fd5b81356001600160a01b03811681146102c157600080fd5b9392505050565b6020808252818101527f4f776e61626c653a2063616c6c6572206973206e6f7420746865206f776e6572604082015260600190565b60006020828403121561030f57600080fd5b815180151581146102c157600080fdfea26469706673582212203ef990f7e8339d746f0e07ffc6a0ff9358cc65e567ae9a66bee205d58ee2ea7164736f6c634300080c0033",
  "devdoc": {
    "kind": "dev",
    "methods": {
      "owner()": {
        "details": "Returns the address of the current owner."
      },
      "renounceOwnership()": {
        "details": "Leaves the contract without owner. It will not be possible to call `onlyOwner` functions anymore. Can only be called by the current owner. NOTE: Renouncing ownership will leave the contract without an owner, thereby removing any functionality that is only available to the owner."
      },
      "transferOwnership(address)": {
        "details": "Transfers ownership of the contract to a new account (`newOwner`). Can only be called by the current owner."
      }
    },
    "version": 1
  },
  "userdoc": {
    "kind": "user",
    "methods": {},
    "version": 1
  },
  "storageLayout": {
    "storage": [
      {
        "astId": 321,
        "contract": "contracts/LiquidityReserve.sol:LiquidityReserve",
        "label": "_owner",
        "offset": 0,
        "slot": "0",
        "type": "t_address"
      },
      {
        "astId": 2927,
        "contract": "contracts/LiquidityReserve.sol:LiquidityReserve",
        "label": "token",
        "offset": 0,
        "slot": "1",
        "type": "t_contract(IERC20)1082"
      }
    ],
    "types": {
      "t_address": {
        "encoding": "inplace",
        "label": "address",
        "numberOfBytes": "20"
      },
      "t_contract(IERC20)1082": {
        "encoding": "inplace",
        "label": "contract IERC20",
        "numberOfBytes": "20"
      }
    }
  }
}