{
  "address": "0x477F44686298386DCa8771a9a7900b1A4BB75784",
  "abi": [
    {
      "inputs": [
        {
          "internalType": "contract IERC20",
          "name": "token_",
          "type": "address"
        }
      ],
      "stateMutability": "nonpayable",
      "type": "constructor"
    },
    {
      "anonymous": false,
      "inputs": [
        {
          "indexed": false,
          "internalType": "uint256",
          "name": "amount",
          "type": "uint256"
        },
        {
          "indexed": false,
          "internalType": "uint256",
          "name": "blockNumber",
          "type": "uint256"
        }
      ],
      "name": "Claimed",
      "type": "event"
    },
    {
      "anonymous": false,
      "inputs": [
        {
          "indexed": true,
          "internalType": "address",
          "name": "previousOwner",
          "type": "address"
        },
        {
          "indexed": true,
          "internalType": "address",
          "name": "newOwner",
          "type": "address"
        }
      ],
      "name": "OwnershipTransferred",
      "type": "event"
    },
    {
      "inputs": [],
      "name": "BLOCKS_PER_MONTH",
      "outputs": [
        {
          "internalType": "uint256",
          "name": "",
          "type": "uint256"
        }
      ],
      "stateMutability": "view",
      "type": "function"
    },
    {
      "inputs": [
        {
          "internalType": "uint256",
          "name": "amount_",
          "type": "uint256"
        }
      ],
      "name": "claim",
      "outputs": [],
      "stateMutability": "nonpayable",
      "type": "function"
    },
    {
      "inputs": [],
      "name": "claimedAmount",
      "outputs": [
        {
          "internalType": "uint256",
          "name": "",
          "type": "uint256"
        }
      ],
      "stateMutability": "view",
      "type": "function"
    },
    {
      "inputs": [],
      "name": "getUnlockedTokenAmount",
      "outputs": [
        {
          "internalType": "uint256",
          "name": "amount",
          "type": "uint256"
        }
      ],
      "stateMutability": "view",
      "type": "function"
    },
    {
      "inputs": [],
      "name": "lockedAmount",
      "outputs": [
        {
          "internalType": "uint256",
          "name": "",
          "type": "uint256"
        }
      ],
      "stateMutability": "view",
      "type": "function"
    },
    {
      "inputs": [],
      "name": "lockedPeriod",
      "outputs": [
        {
          "internalType": "uint256",
          "name": "",
          "type": "uint256"
        }
      ],
      "stateMutability": "view",
      "type": "function"
    },
    {
      "inputs": [],
      "name": "owner",
      "outputs": [
        {
          "internalType": "address",
          "name": "",
          "type": "address"
        }
      ],
      "stateMutability": "view",
      "type": "function"
    },
    {
      "inputs": [],
      "name": "renounceOwnership",
      "outputs": [],
      "stateMutability": "nonpayable",
      "type": "function"
    },
    {
      "inputs": [],
      "name": "startBlock",
      "outputs": [
        {
          "internalType": "uint256",
          "name": "",
          "type": "uint256"
        }
      ],
      "stateMutability": "view",
      "type": "function"
    },
    {
      "inputs": [],
      "name": "token",
      "outputs": [
        {
          "internalType": "contract IERC20",
          "name": "",
          "type": "address"
        }
      ],
      "stateMutability": "view",
      "type": "function"
    },
    {
      "inputs": [
        {
          "internalType": "address",
          "name": "newOwner",
          "type": "address"
        }
      ],
      "name": "transferOwnership",
      "outputs": [],
      "stateMutability": "nonpayable",
      "type": "function"
    },
    {
      "inputs": [],
      "name": "unlockedPerMonth",
      "outputs": [
        {
          "internalType": "uint256",
          "name": "",
          "type": "uint256"
        }
      ],
      "stateMutability": "view",
      "type": "function"
    }
  ],
  "transactionHash": "0x9112cb17aa99b5dbd652c94ac50461ca2c24682b3c817693174fdd7410a9ffca",
  "args": [
    "0x970f855e0B383CF0b3224a16b856C0f2511ffc1e"
  ],
  "numDeployments": 1,
  "solcInputHash": "01fc541ad7291876322f173bfb9d91e4",
  "bytecode": "0x6080604052610012620d23486006610150565b6001556a069e10de76676d08000000600255692a5a058fc295ed00000060055534801561003e57600080fd5b50604051610b48380380610b4883398101604081905261005d9161017d565b61006633610100565b6001600160a01b0381166100d75760405162461bcd60e51b815260206004820152602e60248201527f4d61726b6574696e673a20546f6b656e20616464726573732063616e2774206260448201526d652061646472657373207a65726f60901b606482015260840160405180910390fd5b600680546001600160a01b0319166001600160a01b0392909216919091179055436004556101ad565b600080546001600160a01b038381166001600160a01b0319831681178455604051919092169283917f8be0079c531659141344cd1fd0a4f28419497f9722a3daafe3b4186f6b6457e09190a35050565b600081600019048311821515161561017857634e487b7160e01b600052601160045260246000fd5b500290565b60006020828403121561018f57600080fd5b81516001600160a01b03811681146101a657600080fd5b9392505050565b61098c806101bc6000396000f3fe608060405234801561001057600080fd5b50600436106100b45760003560e01c80638da5cb5b116100715780638da5cb5b1461010c5780639668ceb814610131578063b3d6e1191461013a578063c409084a14610143578063f2fde38b1461014d578063fc0c546a1461016057600080fd5b8063379607f5146100b9578063432f33d7146100ce57806348cd4cb1146100ea57806363f5de76146100f35780636ab28bc8146100fb578063715018a614610104575b600080fd5b6100cc6100c73660046107b8565b610173565b005b6100d760055481565b6040519081526020015b60405180910390f35b6100d760045481565b6100d7610362565b6100d760025481565b6100cc6103eb565b6000546001600160a01b03165b6040516001600160a01b0390911681526020016100e1565b6100d760035481565b6100d760015481565b6100d7620d234881565b6100cc61015b3660046107d1565b610421565b600654610119906001600160a01b031681565b6000546001600160a01b031633146101a65760405162461bcd60e51b815260040161019d906107fa565b60405180910390fd5b6101b4620d23486007610845565b6004546101c19190610864565b43101561021f5760405162461bcd60e51b815260206004820152602660248201527f4d61726b6574696e673a204c6f636b656420706572696f64206469646e2774206044820152651c185cdcd95960d21b606482015260840161019d565b6000610229610362565b90508082111561028b5760405162461bcd60e51b815260206004820152602760248201527f4d61726b6574696e673a20496e73756666696369616e7420756e6c6f636b656460448201526620746f6b656e7360c81b606482015260840161019d565b816003546102999190610864565b60025410156102f85760405162461bcd60e51b815260206004820152602560248201527f4d61726b6574696e673a20496e73756666696369656e74206c6f636b656420746044820152646f6b656e7360d81b606482015260840161019d565b816003600082825461030a9190610864565b9091555050600654610326906001600160a01b031633846104bc565b604080518381524360208201527fc83b5086ce94ec8d5a88a9f5fea4b18a522bb238ed0d2d8abd959549a80c16b8910160405180910390a15050565b6000610372620d23486007610845565b60045461037f9190610864565b43101561038c5750600090565b620d234861039b816006610845565b6004546103a89190610864565b6103b2904361087c565b6103bc9190610893565b6005546103c99190610845565b905060025481106103d957506002545b6003546103e6908261087c565b905090565b6000546001600160a01b031633146104155760405162461bcd60e51b815260040161019d906107fa565b61041f6000610513565b565b6000546001600160a01b0316331461044b5760405162461bcd60e51b815260040161019d906107fa565b6001600160a01b0381166104b05760405162461bcd60e51b815260206004820152602660248201527f4f776e61626c653a206e6577206f776e657220697320746865207a65726f206160448201526564647265737360d01b606482015260840161019d565b6104b981610513565b50565b604080516001600160a01b038416602482015260448082018490528251808303909101815260649091019091526020810180516001600160e01b031663a9059cbb60e01b17905261050e908490610563565b505050565b600080546001600160a01b038381166001600160a01b0319831681178455604051919092169283917f8be0079c531659141344cd1fd0a4f28419497f9722a3daafe3b4186f6b6457e09190a35050565b60006105b8826040518060400160405280602081526020017f5361666545524332303a206c6f772d6c6576656c2063616c6c206661696c6564815250856001600160a01b03166106359092919063ffffffff16565b80519091501561050e57808060200190518101906105d691906108b5565b61050e5760405162461bcd60e51b815260206004820152602a60248201527f5361666545524332303a204552433230206f7065726174696f6e20646964206e6044820152691bdd081cdd58d8d9595960b21b606482015260840161019d565b6060610644848460008561064e565b90505b9392505050565b6060824710156106af5760405162461bcd60e51b815260206004820152602660248201527f416464726573733a20696e73756666696369656e742062616c616e636520666f6044820152651c8818d85b1b60d21b606482015260840161019d565b6001600160a01b0385163b6107065760405162461bcd60e51b815260206004820152601d60248201527f416464726573733a2063616c6c20746f206e6f6e2d636f6e7472616374000000604482015260640161019d565b600080866001600160a01b031685876040516107229190610907565b60006040518083038185875af1925050503d806000811461075f576040519150601f19603f3d011682016040523d82523d6000602084013e610764565b606091505b509150915061077482828661077f565b979650505050505050565b6060831561078e575081610647565b82511561079e5782518084602001fd5b8160405162461bcd60e51b815260040161019d9190610923565b6000602082840312156107ca57600080fd5b5035919050565b6000602082840312156107e357600080fd5b81356001600160a01b038116811461064757600080fd5b6020808252818101527f4f776e61626c653a2063616c6c6572206973206e6f7420746865206f776e6572604082015260600190565b634e487b7160e01b600052601160045260246000fd5b600081600019048311821515161561085f5761085f61082f565b500290565b600082198211156108775761087761082f565b500190565b60008282101561088e5761088e61082f565b500390565b6000826108b057634e487b7160e01b600052601260045260246000fd5b500490565b6000602082840312156108c757600080fd5b8151801515811461064757600080fd5b60005b838110156108f25781810151838201526020016108da565b83811115610901576000848401525b50505050565b600082516109198184602087016108d7565b9190910192915050565b60208152600082518060208401526109428160408501602087016108d7565b601f01601f1916919091016040019291505056fea2646970667358221220381f18e5717558e470f8d18dc3a2687fa88460d0450d061868642c85d5896a6664736f6c634300080c0033",
  "devdoc": {
    "kind": "dev",
    "methods": {
      "owner()": {
        "details": "Returns the address of the current owner."
      },
      "renounceOwnership()": {
        "details": "Leaves the contract without owner. It will not be possible to call `onlyOwner` functions anymore. Can only be called by the current owner. NOTE: Renouncing ownership will leave the contract without an owner, thereby removing any functionality that is only available to the owner."
      },
      "transferOwnership(address)": {
        "details": "Transfers ownership of the contract to a new account (`newOwner`). Can only be called by the current owner."
      }
    },
    "version": 1
  },
  "userdoc": {
    "kind": "user",
    "methods": {},
    "version": 1
  },
  "storageLayout": {
    "storage": [
      {
        "astId": 7,
        "contract": "contracts/Marketing.sol:Marketing",
        "label": "_owner",
        "offset": 0,
        "slot": "0",
        "type": "t_address"
      },
      {
        "astId": 742,
        "contract": "contracts/Marketing.sol:Marketing",
        "label": "lockedPeriod",
        "offset": 0,
        "slot": "1",
        "type": "t_uint256"
      },
      {
        "astId": 745,
        "contract": "contracts/Marketing.sol:Marketing",
        "label": "lockedAmount",
        "offset": 0,
        "slot": "2",
        "type": "t_uint256"
      },
      {
        "astId": 747,
        "contract": "contracts/Marketing.sol:Marketing",
        "label": "claimedAmount",
        "offset": 0,
        "slot": "3",
        "type": "t_uint256"
      },
      {
        "astId": 749,
        "contract": "contracts/Marketing.sol:Marketing",
        "label": "startBlock",
        "offset": 0,
        "slot": "4",
        "type": "t_uint256"
      },
      {
        "astId": 752,
        "contract": "contracts/Marketing.sol:Marketing",
        "label": "unlockedPerMonth",
        "offset": 0,
        "slot": "5",
        "type": "t_uint256"
      },
      {
        "astId": 755,
        "contract": "contracts/Marketing.sol:Marketing",
        "label": "token",
        "offset": 0,
        "slot": "6",
        "type": "t_contract(IERC20)182"
      }
    ],
    "types": {
      "t_address": {
        "encoding": "inplace",
        "label": "address",
        "numberOfBytes": "20"
      },
      "t_contract(IERC20)182": {
        "encoding": "inplace",
        "label": "contract IERC20",
        "numberOfBytes": "20"
      },
      "t_uint256": {
        "encoding": "inplace",
        "label": "uint256",
        "numberOfBytes": "32"
      }
    }
  }
}