{
  "address": "0xc74cf86727baED88c81726204F22999F045f6023",
  "abi": [
    {
      "inputs": [
        {
          "internalType": "contract IERC20",
          "name": "token_",
          "type": "address"
        }
      ],
      "stateMutability": "nonpayable",
      "type": "constructor"
    },
    {
      "anonymous": false,
      "inputs": [
        {
          "indexed": true,
          "internalType": "address",
          "name": "previousOwner",
          "type": "address"
        },
        {
          "indexed": true,
          "internalType": "address",
          "name": "newOwner",
          "type": "address"
        }
      ],
      "name": "OwnershipTransferred",
      "type": "event"
    },
    {
      "anonymous": false,
      "inputs": [
        {
          "indexed": true,
          "internalType": "address",
          "name": "user",
          "type": "address"
        },
        {
          "indexed": false,
          "internalType": "uint256",
          "name": "amount",
          "type": "uint256"
        },
        {
          "indexed": false,
          "internalType": "uint256",
          "name": "startBlock",
          "type": "uint256"
        }
      ],
      "name": "Staked",
      "type": "event"
    },
    {
      "anonymous": false,
      "inputs": [
        {
          "indexed": true,
          "internalType": "address",
          "name": "user",
          "type": "address"
        },
        {
          "indexed": false,
          "internalType": "uint256",
          "name": "amount",
          "type": "uint256"
        }
      ],
      "name": "Unstaked",
      "type": "event"
    },
    {
      "inputs": [],
      "name": "BLOCKS_PER_YEAR",
      "outputs": [
        {
          "internalType": "uint256",
          "name": "",
          "type": "uint256"
        }
      ],
      "stateMutability": "view",
      "type": "function"
    },
    {
      "inputs": [
        {
          "internalType": "uint256",
          "name": "amount",
          "type": "uint256"
        }
      ],
      "name": "addPrizeFund",
      "outputs": [],
      "stateMutability": "nonpayable",
      "type": "function"
    },
    {
      "inputs": [],
      "name": "availablePrizeFund",
      "outputs": [
        {
          "internalType": "uint256",
          "name": "",
          "type": "uint256"
        }
      ],
      "stateMutability": "view",
      "type": "function"
    },
    {
      "inputs": [],
      "name": "owner",
      "outputs": [
        {
          "internalType": "address",
          "name": "",
          "type": "address"
        }
      ],
      "stateMutability": "view",
      "type": "function"
    },
    {
      "inputs": [],
      "name": "renounceOwnership",
      "outputs": [],
      "stateMutability": "nonpayable",
      "type": "function"
    },
    {
      "inputs": [
        {
          "internalType": "uint256",
          "name": "amount_",
          "type": "uint256"
        }
      ],
      "name": "stake",
      "outputs": [],
      "stateMutability": "nonpayable",
      "type": "function"
    },
    {
      "inputs": [
        {
          "internalType": "address",
          "name": "user_",
          "type": "address"
        },
        {
          "internalType": "uint256",
          "name": "amount_",
          "type": "uint256"
        }
      ],
      "name": "stakeOnBehalf",
      "outputs": [],
      "stateMutability": "nonpayable",
      "type": "function"
    },
    {
      "inputs": [],
      "name": "token",
      "outputs": [
        {
          "internalType": "contract IERC20",
          "name": "",
          "type": "address"
        }
      ],
      "stateMutability": "view",
      "type": "function"
    },
    {
      "inputs": [
        {
          "internalType": "address",
          "name": "newOwner",
          "type": "address"
        }
      ],
      "name": "transferOwnership",
      "outputs": [],
      "stateMutability": "nonpayable",
      "type": "function"
    },
    {
      "inputs": [
        {
          "internalType": "uint256",
          "name": "stakeIndex_",
          "type": "uint256"
        }
      ],
      "name": "unstake",
      "outputs": [],
      "stateMutability": "nonpayable",
      "type": "function"
    },
    {
      "inputs": [
        {
          "internalType": "address",
          "name": "",
          "type": "address"
        },
        {
          "internalType": "uint256",
          "name": "",
          "type": "uint256"
        }
      ],
      "name": "userInfo",
      "outputs": [
        {
          "internalType": "uint256",
          "name": "amount",
          "type": "uint256"
        },
        {
          "internalType": "uint256",
          "name": "startBlock",
          "type": "uint256"
        }
      ],
      "stateMutability": "view",
      "type": "function"
    },
    {
      "inputs": [
        {
          "internalType": "address",
          "name": "user_",
          "type": "address"
        }
      ],
      "name": "userStakes",
      "outputs": [
        {
          "components": [
            {
              "internalType": "uint256",
              "name": "amount",
              "type": "uint256"
            },
            {
              "internalType": "uint256",
              "name": "startBlock",
              "type": "uint256"
            }
          ],
          "internalType": "struct Staking.UserInfo[]",
          "name": "",
          "type": "tuple[]"
        }
      ],
      "stateMutability": "view",
      "type": "function"
    },
    {
      "inputs": [],
      "name": "withdraw",
      "outputs": [],
      "stateMutability": "nonpayable",
      "type": "function"
    }
  ],
  "transactionHash": "0x87219210e106253348493253eefbdb2c575f0842c1c823393143b37a59802f5b",
  "args": [
    "0x970f855e0B383CF0b3224a16b856C0f2511ffc1e"
  ],
  "numDeployments": 2,
  "solcInputHash": "b21961cacce2bb28269a08c3a6d6559d",
  "bytecode": "0x608060405234801561001057600080fd5b50604051610eac380380610eac83398101604081905261002f91610113565b610038336100c3565b6001600160a01b03811661009e5760405162461bcd60e51b815260206004820152602360248201527f546f6b656e20616464726573732063616e27742062652061646472657373207a60448201526265726f60e81b606482015260840160405180910390fd5b600180546001600160a01b0319166001600160a01b0392909216919091179055610143565b600080546001600160a01b038381166001600160a01b0319831681178455604051919092169283917f8be0079c531659141344cd1fd0a4f28419497f9722a3daafe3b4186f6b6457e09190a35050565b60006020828403121561012557600080fd5b81516001600160a01b038116811461013c57600080fd5b9392505050565b610d5a806101526000396000f3fe608060405234801561001057600080fd5b50600436106100cf5760003560e01c80638da5cb5b1161008c578063c07092d511610066578063c07092d5146101a4578063d37db1d2146101bb578063f2fde38b146101c5578063fc0c546a146101d857600080fd5b80638da5cb5b1461014c5780638da7ad2314610171578063a694fc3a1461019157600080fd5b80631d9ca881146100d457806321ce919d146100e95780632e17de78146101165780633ccfd60b14610129578063460b5ee214610131578063715018a614610144575b600080fd5b6100e76100e2366004610b61565b6101eb565b005b6100fc6100f7366004610b96565b6102b5565b604080519283526020830191909152015b60405180910390f35b6100e7610124366004610b61565b6102f1565b6100e7610587565b6100e761013f366004610b96565b6105f1565b6100e7610820565b6000546001600160a01b03165b6040516001600160a01b03909116815260200161010d565b61018461017f366004610bc0565b610856565b60405161010d9190610be2565b6100e761019f366004610b61565b6108df565b6101ad60025481565b60405190815260200161010d565b6101ad629fd7ec81565b6100e76101d3366004610bc0565b610a76565b600154610159906001600160a01b031681565b6000546001600160a01b0316331461021e5760405162461bcd60e51b815260040161021590610c31565b60405180910390fd5b80600260008282546102309190610c7c565b90915550506001546040516323b872dd60e01b8152336004820152306024820152604481018390526001600160a01b03909116906323b872dd906064015b6020604051808303816000875af115801561028d573d6000803e3d6000fd5b505050506040513d601f19601f820116820180604052508101906102b19190610c94565b5050565b600360205281600052604060002081815481106102d157600080fd5b600091825260209091206002909102018054600190910154909250905082565b33600090815260036020526040812080548390811061031257610312610cb6565b906000526020600020906002020160000154116103715760405162461bcd60e51b815260206004820152601b60248201527f5374616b696e673a204e6f7468696e6720746f20756e7374616b6500000000006044820152606401610215565b43610380629fd7ec6003610ccc565b3360009081526003602052604090208054849081106103a1576103a1610cb6565b9060005260206000209060020201600101546103bd9190610c7c565b11156104175760405162461bcd60e51b8152602060048201526024808201527f5374616b696e673a204c6f636b656420706572696f64206469646e27742070616044820152631cdcd95960e21b6064820152608401610215565b33600090815260036020526040812080548390811061043857610438610cb6565b60009182526020808320600290920290910154338352600390915260409091208054919250908390811061046e5761046e610cb6565b600091825260208220600290910201818155600190810191909155546001600160a01b031663a9059cbb336127106104a8856104b0610ccc565b6104b29190610ceb565b6104bc9085610c7c565b6040516001600160e01b031960e085901b1681526001600160a01b03909216600483015260248201526044016020604051808303816000875af1158015610507573d6000803e3d6000fd5b505050506040513d601f19601f8201168201806040525081019061052b9190610c94565b50337f0f5bb82176feb1b5e747e28471aa92156a04d9f3ab9f45f28e2d704232b93f7561271061055d846104b0610ccc565b6105679190610ceb565b6105719084610c7c565b6040519081526020015b60405180910390a25050565b6000546001600160a01b031633146105b15760405162461bcd60e51b815260040161021590610c31565b60028054600090915560015460405163a9059cbb60e01b8152336004820152602481018390526001600160a01b039091169063a9059cbb9060440161026e565b6000546001600160a01b0316331461061b5760405162461bcd60e51b815260040161021590610c31565b61271061062a826104b0610ccc565b6106349190610ceb565b600254116106845760405162461bcd60e51b815260206004820181905260248201527f5374616b696e673a20496e73756666696369656e74205072697a652066756e646044820152606401610215565b6001600160a01b0382166106e65760405162461bcd60e51b815260206004820152602360248201527f5374616b696e673a205573657220616464726573732063616e2774206265207a60448201526265726f60e81b6064820152608401610215565b6001600160a01b038216600090815260036020908152604080832081518083019092528482524382840190815281546001818101845592865293909420915160029093029091019182559151910155612710610744826104b0610ccc565b61074e9190610ceb565b6002600082825461075f9190610d0d565b90915550506001546040516323b872dd60e01b8152336004820152306024820152604481018390526001600160a01b03909116906323b872dd906064016020604051808303816000875af11580156107bb573d6000803e3d6000fd5b505050506040513d601f19601f820116820180604052508101906107df9190610c94565b50604080518281524360208201526001600160a01b038416917f1449c6dd7851abc30abf37f57715f492010519147cc2652fbc38202c18a6ee90910161057b565b6000546001600160a01b0316331461084a5760405162461bcd60e51b815260040161021590610c31565b6108546000610b11565b565b6001600160a01b0381166000908152600360209081526040808320805482518185028101850190935280835260609492939192909184015b828210156108d45783829060005260206000209060020201604051806040016040529081600082015481526020016001820154815250508152602001906001019061088e565b505050509050919050565b6127106108ee826104b0610ccc565b6108f89190610ceb565b600254116109485760405162461bcd60e51b815260206004820181905260248201527f5374616b696e673a20496e73756666696369656e74205072697a652066756e646044820152606401610215565b3360009081526003602090815260408083208151808301909252848252438284019081528154600181810184559286529390942091516002909302909101918255915191015561271061099d826104b0610ccc565b6109a79190610ceb565b600260008282546109b89190610d0d565b90915550506001546040516323b872dd60e01b8152336004820152306024820152604481018390526001600160a01b03909116906323b872dd906064016020604051808303816000875af1158015610a14573d6000803e3d6000fd5b505050506040513d601f19601f82011682018060405250810190610a389190610c94565b506040805182815243602082015233917f1449c6dd7851abc30abf37f57715f492010519147cc2652fbc38202c18a6ee90910160405180910390a250565b6000546001600160a01b03163314610aa05760405162461bcd60e51b815260040161021590610c31565b6001600160a01b038116610b055760405162461bcd60e51b815260206004820152602660248201527f4f776e61626c653a206e6577206f776e657220697320746865207a65726f206160448201526564647265737360d01b6064820152608401610215565b610b0e81610b11565b50565b600080546001600160a01b038381166001600160a01b0319831681178455604051919092169283917f8be0079c531659141344cd1fd0a4f28419497f9722a3daafe3b4186f6b6457e09190a35050565b600060208284031215610b7357600080fd5b5035919050565b80356001600160a01b0381168114610b9157600080fd5b919050565b60008060408385031215610ba957600080fd5b610bb283610b7a565b946020939093013593505050565b600060208284031215610bd257600080fd5b610bdb82610b7a565b9392505050565b602080825282518282018190526000919060409081850190868401855b82811015610c2457815180518552860151868501529284019290850190600101610bff565b5091979650505050505050565b6020808252818101527f4f776e61626c653a2063616c6c6572206973206e6f7420746865206f776e6572604082015260600190565b634e487b7160e01b600052601160045260246000fd5b60008219821115610c8f57610c8f610c66565b500190565b600060208284031215610ca657600080fd5b81518015158114610bdb57600080fd5b634e487b7160e01b600052603260045260246000fd5b6000816000190483118215151615610ce657610ce6610c66565b500290565b600082610d0857634e487b7160e01b600052601260045260246000fd5b500490565b600082821015610d1f57610d1f610c66565b50039056fea2646970667358221220cb682e8fcd6e31278b6d6863e2741c0905634a60384fa49c1e5a2173e75e348964736f6c634300080c0033",
  "devdoc": {
    "kind": "dev",
    "methods": {
      "owner()": {
        "details": "Returns the address of the current owner."
      },
      "renounceOwnership()": {
        "details": "Leaves the contract without owner. It will not be possible to call `onlyOwner` functions anymore. Can only be called by the current owner. NOTE: Renouncing ownership will leave the contract without an owner, thereby removing any functionality that is only available to the owner."
      },
      "transferOwnership(address)": {
        "details": "Transfers ownership of the contract to a new account (`newOwner`). Can only be called by the current owner."
      }
    },
    "version": 1
  },
  "userdoc": {
    "kind": "user",
    "methods": {},
    "version": 1
  },
  "storageLayout": {
    "storage": [
      {
        "astId": 7,
        "contract": "contracts/Staking.sol:Staking",
        "label": "_owner",
        "offset": 0,
        "slot": "0",
        "type": "t_address"
      },
      {
        "astId": 213,
        "contract": "contracts/Staking.sol:Staking",
        "label": "token",
        "offset": 0,
        "slot": "1",
        "type": "t_contract(IERC20)182"
      },
      {
        "astId": 220,
        "contract": "contracts/Staking.sol:Staking",
        "label": "availablePrizeFund",
        "offset": 0,
        "slot": "2",
        "type": "t_uint256"
      },
      {
        "astId": 229,
        "contract": "contracts/Staking.sol:Staking",
        "label": "userInfo",
        "offset": 0,
        "slot": "3",
        "type": "t_mapping(t_address,t_array(t_struct(UserInfo)218_storage)dyn_storage)"
      }
    ],
    "types": {
      "t_address": {
        "encoding": "inplace",
        "label": "address",
        "numberOfBytes": "20"
      },
      "t_array(t_struct(UserInfo)218_storage)dyn_storage": {
        "base": "t_struct(UserInfo)218_storage",
        "encoding": "dynamic_array",
        "label": "struct Staking.UserInfo[]",
        "numberOfBytes": "32"
      },
      "t_contract(IERC20)182": {
        "encoding": "inplace",
        "label": "contract IERC20",
        "numberOfBytes": "20"
      },
      "t_mapping(t_address,t_array(t_struct(UserInfo)218_storage)dyn_storage)": {
        "encoding": "mapping",
        "key": "t_address",
        "label": "mapping(address => struct Staking.UserInfo[])",
        "numberOfBytes": "32",
        "value": "t_array(t_struct(UserInfo)218_storage)dyn_storage"
      },
      "t_struct(UserInfo)218_storage": {
        "encoding": "inplace",
        "label": "struct Staking.UserInfo",
        "members": [
          {
            "astId": 215,
            "contract": "contracts/Staking.sol:Staking",
            "label": "amount",
            "offset": 0,
            "slot": "0",
            "type": "t_uint256"
          },
          {
            "astId": 217,
            "contract": "contracts/Staking.sol:Staking",
            "label": "startBlock",
            "offset": 0,
            "slot": "1",
            "type": "t_uint256"
          }
        ],
        "numberOfBytes": "64"
      },
      "t_uint256": {
        "encoding": "inplace",
        "label": "uint256",
        "numberOfBytes": "32"
      }
    }
  }
}