{
  "address": "0xa7d3af854E456575115742E3B3308D134521cC2D",
  "abi": [
    {
      "inputs": [
        {
          "internalType": "contract IERC20",
          "name": "token_",
          "type": "address"
        },
        {
          "internalType": "address",
          "name": "priceFeed_",
          "type": "address"
        },
        {
          "internalType": "contract IApePair",
          "name": "pair_",
          "type": "address"
        },
        {
          "internalType": "contract IApeRouter02",
          "name": "router_",
          "type": "address"
        },
        {
          "internalType": "address",
          "name": "burnReserve_",
          "type": "address"
        },
        {
          "internalType": "address",
          "name": "liquidityReserve_",
          "type": "address"
        },
        {
          "internalType": "address",
          "name": "treasury_",
          "type": "address"
        }
      ],
      "stateMutability": "nonpayable",
      "type": "constructor"
    },
    {
      "anonymous": false,
      "inputs": [
        {
          "indexed": false,
          "internalType": "uint256",
          "name": "lotteryId",
          "type": "uint256"
        },
        {
          "indexed": false,
          "internalType": "uint256",
          "name": "ticketSupply",
          "type": "uint256"
        }
      ],
      "name": "LotteryClose",
      "type": "event"
    },
    {
      "anonymous": false,
      "inputs": [
        {
          "indexed": false,
          "internalType": "uint256",
          "name": "lotteryId",
          "type": "uint256"
        },
        {
          "indexed": false,
          "internalType": "uint256",
          "name": "ticketSupply",
          "type": "uint256"
        }
      ],
      "name": "LotteryOpen",
      "type": "event"
    },
    {
      "anonymous": false,
      "inputs": [
        {
          "indexed": true,
          "internalType": "address",
          "name": "previousOwner",
          "type": "address"
        },
        {
          "indexed": true,
          "internalType": "address",
          "name": "newOwner",
          "type": "address"
        }
      ],
      "name": "OwnershipTransferred",
      "type": "event"
    },
    {
      "anonymous": false,
      "inputs": [
        {
          "indexed": false,
          "internalType": "uint256",
          "name": "lotteryId",
          "type": "uint256"
        },
        {
          "indexed": false,
          "internalType": "bytes32",
          "name": "requestId",
          "type": "bytes32"
        }
      ],
      "name": "RequestNumbers",
      "type": "event"
    },
    {
      "anonymous": false,
      "inputs": [
        {
          "indexed": false,
          "internalType": "address",
          "name": "admin",
          "type": "address"
        },
        {
          "indexed": false,
          "internalType": "uint16",
          "name": "newMaxRange",
          "type": "uint16"
        }
      ],
      "name": "UpdatedMaxRange",
      "type": "event"
    },
    {
      "anonymous": false,
      "inputs": [
        {
          "indexed": false,
          "internalType": "address",
          "name": "admin",
          "type": "address"
        },
        {
          "indexed": false,
          "internalType": "uint16",
          "name": "newLotterySize",
          "type": "uint16"
        }
      ],
      "name": "UpdatedSizeOfLottery",
      "type": "event"
    },
    {
      "inputs": [
        {
          "internalType": "address",
          "name": "",
          "type": "address"
        },
        {
          "internalType": "uint256",
          "name": "",
          "type": "uint256"
        }
      ],
      "name": "alreadyClaimed",
      "outputs": [
        {
          "internalType": "bool",
          "name": "",
          "type": "bool"
        }
      ],
      "stateMutability": "view",
      "type": "function"
    },
    {
      "inputs": [],
      "name": "burnReserve",
      "outputs": [
        {
          "internalType": "address",
          "name": "",
          "type": "address"
        }
      ],
      "stateMutability": "view",
      "type": "function"
    },
    {
      "inputs": [
        {
          "internalType": "uint256",
          "name": "lotteryId_",
          "type": "uint256"
        }
      ],
      "name": "buyTicket",
      "outputs": [],
      "stateMutability": "nonpayable",
      "type": "function"
    },
    {
      "inputs": [
        {
          "internalType": "uint256",
          "name": "lotteryId_",
          "type": "uint256"
        }
      ],
      "name": "claimReward",
      "outputs": [],
      "stateMutability": "nonpayable",
      "type": "function"
    },
    {
      "inputs": [
        {
          "internalType": "uint16[]",
          "name": "prizeDistributionPercents_",
          "type": "uint16[]"
        },
        {
          "internalType": "uint256",
          "name": "startBlock_",
          "type": "uint256"
        },
        {
          "internalType": "uint256",
          "name": "ticketPrice_",
          "type": "uint256"
        },
        {
          "internalType": "uint16",
          "name": "ticketsCount_",
          "type": "uint16"
        }
      ],
      "name": "createNewLotto",
      "outputs": [
        {
          "internalType": "uint256",
          "name": "lotteryId",
          "type": "uint256"
        }
      ],
      "stateMutability": "nonpayable",
      "type": "function"
    },
    {
      "inputs": [
        {
          "internalType": "uint256",
          "name": "",
          "type": "uint256"
        }
      ],
      "name": "currentTicket",
      "outputs": [
        {
          "internalType": "uint16",
          "name": "",
          "type": "uint16"
        }
      ],
      "stateMutability": "view",
      "type": "function"
    },
    {
      "inputs": [
        {
          "internalType": "uint256",
          "name": "lotteryId_",
          "type": "uint256"
        }
      ],
      "name": "drawWinningNumbers",
      "outputs": [],
      "stateMutability": "nonpayable",
      "type": "function"
    },
    {
      "inputs": [
        {
          "internalType": "uint256",
          "name": "lotteryId_",
          "type": "uint256"
        }
      ],
      "name": "getBasicLottoInfo",
      "outputs": [
        {
          "components": [
            {
              "internalType": "uint256",
              "name": "lotteryID",
              "type": "uint256"
            },
            {
              "internalType": "enum Lottery.Status",
              "name": "lotteryStatus",
              "type": "uint8"
            },
            {
              "internalType": "uint16[]",
              "name": "prizeDistributionPercents",
              "type": "uint16[]"
            },
            {
              "internalType": "uint256",
              "name": "startBlock",
              "type": "uint256"
            },
            {
              "internalType": "uint256",
              "name": "ticketPrice",
              "type": "uint256"
            },
            {
              "internalType": "uint16",
              "name": "ticketsCount",
              "type": "uint16"
            },
            {
              "internalType": "uint16",
              "name": "ticketsSold",
              "type": "uint16"
            },
            {
              "internalType": "uint16[]",
              "name": "winningNumbers",
              "type": "uint16[]"
            }
          ],
          "internalType": "struct Lottery.LottoInfo",
          "name": "",
          "type": "tuple"
        }
      ],
      "stateMutability": "view",
      "type": "function"
    },
    {
      "inputs": [
        {
          "internalType": "uint16[]",
          "name": "usersNumbers_",
          "type": "uint16[]"
        },
        {
          "internalType": "uint16[]",
          "name": "winningNumbers_",
          "type": "uint16[]"
        }
      ],
      "name": "getNumberOfMatching",
      "outputs": [
        {
          "internalType": "uint16[]",
          "name": "wonNumbers",
          "type": "uint16[]"
        }
      ],
      "stateMutability": "pure",
      "type": "function"
    },
    {
      "inputs": [
        {
          "internalType": "uint256",
          "name": "price_",
          "type": "uint256"
        }
      ],
      "name": "getTokenAmountForCurrentPrice",
      "outputs": [
        {
          "internalType": "uint256",
          "name": "",
          "type": "uint256"
        }
      ],
      "stateMutability": "view",
      "type": "function"
    },
    {
      "inputs": [
        {
          "internalType": "address",
          "name": "user_",
          "type": "address"
        },
        {
          "internalType": "uint256",
          "name": "lotteryId_",
          "type": "uint256"
        }
      ],
      "name": "getUsersTickets",
      "outputs": [
        {
          "internalType": "uint16[]",
          "name": "",
          "type": "uint16[]"
        }
      ],
      "stateMutability": "view",
      "type": "function"
    },
    {
      "inputs": [
        {
          "internalType": "uint256",
          "name": "_lotteryId",
          "type": "uint256"
        }
      ],
      "name": "getWiningNumbers",
      "outputs": [],
      "stateMutability": "nonpayable",
      "type": "function"
    },
    {
      "inputs": [
        {
          "internalType": "address",
          "name": "user_",
          "type": "address"
        },
        {
          "internalType": "uint256",
          "name": "lotteryId_",
          "type": "uint256"
        }
      ],
      "name": "getWonAmount",
      "outputs": [
        {
          "internalType": "uint256",
          "name": "amount",
          "type": "uint256"
        }
      ],
      "stateMutability": "view",
      "type": "function"
    },
    {
      "inputs": [],
      "name": "liquidityReserve",
      "outputs": [
        {
          "internalType": "address",
          "name": "",
          "type": "address"
        }
      ],
      "stateMutability": "view",
      "type": "function"
    },
    {
      "inputs": [
        {
          "internalType": "uint256",
          "name": "lotteryId_",
          "type": "uint256"
        },
        {
          "internalType": "bytes32",
          "name": "_requestId",
          "type": "bytes32"
        },
        {
          "internalType": "uint256",
          "name": "_randomNumber",
          "type": "uint256"
        }
      ],
      "name": "numbersDrawn",
      "outputs": [],
      "stateMutability": "nonpayable",
      "type": "function"
    },
    {
      "inputs": [],
      "name": "owner",
      "outputs": [
        {
          "internalType": "address",
          "name": "",
          "type": "address"
        }
      ],
      "stateMutability": "view",
      "type": "function"
    },
    {
      "inputs": [],
      "name": "pair",
      "outputs": [
        {
          "internalType": "contract IApePair",
          "name": "",
          "type": "address"
        }
      ],
      "stateMutability": "view",
      "type": "function"
    },
    {
      "inputs": [],
      "name": "priceFeed",
      "outputs": [
        {
          "internalType": "contract AggregatorInterface",
          "name": "",
          "type": "address"
        }
      ],
      "stateMutability": "view",
      "type": "function"
    },
    {
      "inputs": [
        {
          "internalType": "uint256",
          "name": "",
          "type": "uint256"
        }
      ],
      "name": "rendomNumbers",
      "outputs": [
        {
          "internalType": "uint256",
          "name": "",
          "type": "uint256"
        }
      ],
      "stateMutability": "view",
      "type": "function"
    },
    {
      "inputs": [],
      "name": "renounceOwnership",
      "outputs": [],
      "stateMutability": "nonpayable",
      "type": "function"
    },
    {
      "inputs": [],
      "name": "router",
      "outputs": [
        {
          "internalType": "contract IApeRouter02",
          "name": "",
          "type": "address"
        }
      ],
      "stateMutability": "view",
      "type": "function"
    },
    {
      "inputs": [
        {
          "internalType": "address",
          "name": "randomNumberGenerator_",
          "type": "address"
        }
      ],
      "name": "setRendomGenerator",
      "outputs": [],
      "stateMutability": "nonpayable",
      "type": "function"
    },
    {
      "inputs": [
        {
          "internalType": "uint256",
          "name": "amount",
          "type": "uint256"
        }
      ],
      "name": "swap",
      "outputs": [],
      "stateMutability": "nonpayable",
      "type": "function"
    },
    {
      "inputs": [],
      "name": "token",
      "outputs": [
        {
          "internalType": "contract IERC20",
          "name": "",
          "type": "address"
        }
      ],
      "stateMutability": "view",
      "type": "function"
    },
    {
      "inputs": [
        {
          "internalType": "address",
          "name": "newOwner",
          "type": "address"
        }
      ],
      "name": "transferOwnership",
      "outputs": [],
      "stateMutability": "nonpayable",
      "type": "function"
    },
    {
      "inputs": [],
      "name": "treasury",
      "outputs": [
        {
          "internalType": "address",
          "name": "",
          "type": "address"
        }
      ],
      "stateMutability": "view",
      "type": "function"
    },
    {
      "inputs": [
        {
          "internalType": "address",
          "name": "",
          "type": "address"
        },
        {
          "internalType": "uint256",
          "name": "",
          "type": "uint256"
        },
        {
          "internalType": "uint256",
          "name": "",
          "type": "uint256"
        }
      ],
      "name": "usersTickets",
      "outputs": [
        {
          "internalType": "uint16",
          "name": "",
          "type": "uint16"
        }
      ],
      "stateMutability": "view",
      "type": "function"
    }
  ],
  "transactionHash": "0x872bc3a4999824713644b90778ac9c8eeeef0f0f52e48fe7555ab54d95e57a9d",
  "args": [
    "0xb2f7c9ef736Ebdb27AB37591Ed3aeBB20cbe9512",
    "0x2514895c72f50D8bd4B4F9b1110F0D6bD2c97526",
    "0xe1F65657c63a9278b614314f480CB948358FAb1b",
    "0xD99D1c33F9fC3444f8101754aBC46c52416550D1",
    "0x7B6a566D303C716dFA5Caa92b5f5e35b911C258d",
    "0x21c7F4D529eAd0a75A039aa009B07452Bcce622B",
    "0xb2444FE0E53378E094736834067c1E2653ec3CAB"
  ],
  "numDeployments": 32,
  "solcInputHash": "5ccd68c9b530f0db4870597ab52b9b38",
  "bytecode": "0x60806040523480156200001157600080fd5b5060405162003064380380620030648339810160408190526200003491620003e7565b6200003f336200037e565b6001600160a01b038416620000a95760405162461bcd60e51b815260206004820152602560248201527f4c6f74746572793a20526f757465722063616e27742062652061646472657373604482015264207a65726f60d81b60648201526084015b60405180910390fd5b6001600160a01b038716620000fc5760405162461bcd60e51b815260206004820152602360248201526000805160206200304483398151915260448201526265726f60e81b6064820152608401620000a0565b6001600160a01b038116620001645760405162461bcd60e51b815260206004820152602760248201527f4c6f74746572793a2054726561737572792063616e27742062652061646472656044820152667373207a65726f60c81b6064820152608401620000a0565b6001600160a01b038216620001d45760405162461bcd60e51b815260206004820152602f60248201527f4c6f74746572793a204c6971756964697479526573657276652063616e27742060448201526e62652061646472657373207a65726f60881b6064820152608401620000a0565b6001600160a01b0383166200023f5760405162461bcd60e51b815260206004820152602a60248201527f4c6f74746572793a204275726e526573657276652063616e27742062652061646044820152696472657373207a65726f60b01b6064820152608401620000a0565b6001600160a01b038616620002a85760405162461bcd60e51b815260206004820152602860248201527f4c6f74746572793a205072696365466565642063616e27742062652061646472604482015267657373207a65726f60c01b6064820152608401620000a0565b6001600160a01b038516620002fb5760405162461bcd60e51b815260206004820152602360248201526000805160206200304483398151915260448201526265726f60e81b6064820152608401620000a0565b600180546001600160a01b03199081166001600160a01b03998a1617909155600580548216978916979097179096556006805487169588169590951790945560088054861692871692909217909155600980548516918616919091179055600a805484169285169290921790915560078054909216921691909117905562000492565b600080546001600160a01b038381166001600160a01b0319831681178455604051919092169283917f8be0079c531659141344cd1fd0a4f28419497f9722a3daafe3b4186f6b6457e09190a35050565b6001600160a01b0381168114620003e457600080fd5b50565b600080600080600080600060e0888a0312156200040357600080fd5b87516200041081620003ce565b60208901519097506200042381620003ce565b60408901519096506200043681620003ce565b60608901519095506200044981620003ce565b60808901519094506200045c81620003ce565b60a08901519093506200046f81620003ce565b60c08901519092506200048281620003ce565b8091505092959891949750929550565b612ba280620004a26000396000f3fe608060405234801561001057600080fd5b50600436106101a95760003560e01c8063a324a3dd116100f9578063d310019c11610097578063e97fc16211610071578063e97fc162146103f9578063f2fde38b1461040c578063f887ea401461041f578063fc0c546a1461043257600080fd5b8063d310019c14610388578063d57f60d2146103c6578063da476755146103d957600080fd5b8063ae169a50116100d3578063ae169a501461033c578063b753bfe91461034f578063bb8440fd14610362578063bf16257a1461037557600080fd5b8063a324a3dd146102e5578063a8aa1b3114610309578063abbcee361461031c57600080fd5b806367dd74ca116101665780637c3fac26116101405780637c3fac261461029b5780637cbd1b3c146102ae5780638da5cb5b146102c157806394b918de146102d257600080fd5b806367dd74ca1461026d578063715018a614610280578063741bef1a1461028857600080fd5b806305f61786146101ae5780630c97fd45146101d457806336e4276a146101e95780633a0dca4c146101fc57806341ab01471461021c57806361d027b314610242575b600080fd5b6101c16101bc366004612469565b610445565b6040519081526020015b60405180910390f35b6101e76101e2366004612469565b6105f8565b005b6101e76101f7366004612469565b610906565b61020f61020a36600461249e565b6109a6565b6040516101cb91906124c8565b61022f61022a366004612510565b610a44565b60405161ffff90911681526020016101cb565b600a54610255906001600160a01b031681565b6040516001600160a01b0390911681526020016101cb565b6101e761027b366004612469565b610a98565b6101e7610c7b565b600554610255906001600160a01b031681565b6101e76102a9366004612543565b610cb1565b6101c16102bc366004612570565b610d53565b6000546001600160a01b0316610255565b6101e76102e0366004612469565b6110e5565b61022f6102f3366004612469565b600b6020526000908152604090205461ffff1681565b600654610255906001600160a01b031681565b6101c161032a366004612469565b600f6020526000908152604090205481565b6101e761034a366004612469565b6113a9565b600954610255906001600160a01b031681565b6101c161037036600461249e565b6116d1565b600854610255906001600160a01b031681565b6103b661039636600461249e565b600d60209081526000928352604080842090915290825290205460ff1681565b60405190151581526020016101cb565b61020f6103d43660046126e3565b611987565b6103ec6103e7366004612469565b611abc565b6040516101cb919061279c565b6101e7610407366004612845565b611c8e565b6101e761041a366004612543565b611d90565b600754610255906001600160a01b031681565b600154610255906001600160a01b031681565b600080600560009054906101000a90046001600160a01b03166001600160a01b03166350d25bcd6040518163ffffffff1660e01b8152600401602060405180830381865afa15801561049b573d6000803e3d6000fd5b505050506040513d601f19601f820116820180604052508101906104bf9190612871565b6001546006546040516370a0823160e01b81526001600160a01b0391821660048201529293506000929116906370a0823190602401602060405180830381865afa158015610511573d6000803e3d6000fd5b505050506040513d601f19601f820116820180604052508101906105359190612871565b6006546040516370a0823160e01b81526001600160a01b03909116600482015290915060009073ae13d989dac2f0debff460ac112a837c89baa7cd906370a0823190602401602060405180830381865afa158015610597573d6000803e3d6000fd5b505050506040513d601f19601f820116820180604052508101906105bb9190612871565b905060006105c982846128b6565b6105d390856128b6565b9050806105e4876305f5e1006128ca565b6105ee91906128b6565b9695505050505050565b6000546001600160a01b0316331461062b5760405162461bcd60e51b8152600401610622906128e9565b60405180910390fd5b6000818152600e602052604090206005015462010000810461ffff9081169116146106b35760405162461bcd60e51b815260206004820152603260248201527f4c6f74746572793a2043616e6e6f74207365742077696e6e696e67206e756d6260448201527165727320647572696e67206c6f747465727960701b6064820152608401610622565b60016000828152600e602052604090206001015460ff1660038111156106db576106db612747565b148061070a57506000818152600e602052604081206001015460ff16600381111561070857610708612747565b145b6107605760405162461bcd60e51b815260206004820152602160248201527f4c6f74746572793a20537461746520696e636f727265637420666f72206472616044820152607760f81b6064820152608401610622565b6000818152600e602052604090819020600101805460ff19166002908117909155549051632cdc85e960e21b8152600481018390526001600160a01b039091169063b37217a4906024016020604051808303816000875af11580156107c9573d6000803e3d6000fd5b505050506040513d601f19601f820116820180604052508101906107ed9190612871565b6003556000818152600e60205260408120600581015460049091015460029161ffff169061081a90610445565b61082c90670de0b6b3a76400006128ca565b61083691906128ca565b61084091906128b6565b60015460085460405163a9059cbb60e01b81526001600160a01b03918216600482015260248101849052929350169063a9059cbb906044016020604051808303816000875af1158015610897573d6000803e3d6000fd5b505050506040513d601f19601f820116820180604052508101906108bb919061291e565b506108c5816110e5565b6003546040805184815260208101929092527ff8cdf8355a0f31bbad8998a631f5a75dcb3e475a010b34a111ed105fe88e751a910160405180910390a15050565b60036000828152600e602052604090206001015460ff16600381111561092e5761092e612747565b146109705760405162461bcd60e51b8152602060048201526012602482015271111c985dc81b9d5b58995c9cc8199a5c9cdd60721b6044820152606401610622565b61097981611e28565b600e600083815260200190815260200160002060060190805190602001906109a29291906123ab565b5050565b6001600160a01b0382166000908152600c60209081526040808320848452825291829020805483518184028101840190945280845260609392830182828015610a3657602002820191906000526020600020906000905b82829054906101000a900461ffff1661ffff16815260200190600201906020826001010492830192600103820291508084116109fd5790505b505050505090505b92915050565b600c6020528260005260406000206020528160005260406000208181548110610a6c57600080fd5b906000526020600020906010918282040191900660020292509250509054906101000a900461ffff1681565b6000818152600e6020526040902060030154431015610af95760405162461bcd60e51b815260206004820152601860248201527f4c6f74746572793a204e6f7420737461727465642079657400000000000000006044820152606401610622565b6000818152600e602052604090206005015461ffff808216620100009092041610610b665760405162461bcd60e51b815260206004820152601d60248201527f4c6f74746572793a204e6f20617661696c61626c65207469636b6574730000006044820152606401610622565b336000908152600c602090815260408083208484528252808320600b8352908320805482546001810184559285529284206010830401805461ffff600f9094166002026101000a84810219909116948416029390931790925583835281541691610bcf83612940565b82546101009290920a61ffff8181021990931691831602179091556000838152600e60205260409020600501805462010000900490911691506002610c1383612940565b91906101000a81548161ffff021916908361ffff16021790555050610c783330610c52600e600086815260200190815260200160002060040154610445565b610c6490670de0b6b3a76400006128ca565b6001546001600160a01b031692919061205a565b50565b6000546001600160a01b03163314610ca55760405162461bcd60e51b8152600401610622906128e9565b610caf60006120c5565b565b6000546001600160a01b03163314610cdb5760405162461bcd60e51b8152600401610622906128e9565b6001600160a01b038116610d315760405162461bcd60e51b815260206004820152601d60248201527f436f6e7472616374732063616e6e6f74206265203020616464726573730000006044820152606401610622565b600280546001600160a01b0319166001600160a01b0392909216919091179055565b600080546001600160a01b03163314610d7e5760405162461bcd60e51b8152600401610622906128e9565b60008311610dda5760405162461bcd60e51b815260206004820152602360248201527f4c6f74746572793a205469636b65742070726963652063616e2774206265207a60448201526265726f60e81b6064820152608401610622565b60008261ffff1611610e3a5760405162461bcd60e51b8152602060048201526024808201527f4c6f74746572793a205469636b65747320636f756e742063616e2774206265206044820152637a65726f60e01b6064820152608401610622565b43841015610e7e5760405162461bcd60e51b81526020600482015260116024820152704c6f74746572793a20546f6f206c61746560781b6044820152606401610622565b6000805b60028160ff1611610ed95787878260ff16818110610ea257610ea2612962565b9050602002016020810190610eb79190612978565b610ec59061ffff1683612993565b915080610ed1816129ab565b915050610e82565b508061138814610f465760405162461bcd60e51b815260206004820152603260248201527f4c6f74746572793a20496e636f72726563742070657263656e747320666f7220604482015271383934bd32903234b9ba3934b13aba34b7b760711b6064820152608401610622565b60048054906000610f56836129cb565b919050555060045491506060600043871415610f7457506001610f78565b5060005b6000604051806101000160405280868152602001836003811115610f9e57610f9e612747565b81526020018b8b80806020026020016040519081016040528093929190818152602001838360200280828437600092018290525093855250505060208083018c905260408084018c905261ffff8b1660608501526080840183905260a0909301879052888252600e81529190208251815590820151600180830180549495508594909160ff199091169083600381111561103a5761103a612747565b02179055506040820151805161105a9160028401916020909101906123ab565b50606082015160038201556080820151600482015560a082015160058201805460c085015161ffff908116620100000263ffffffff1990921693169290921791909117905560e082015180516110ba9160068401916020909101906123ab565b5050506000858152600b60205260409020805461ffff19166001179055509298975050505050505050565b60006127106110f6836117706128ca565b61110091906128b6565b6040805160028082526060820183529293506000929091602083019080368337505060015482519293506001600160a01b03169183915060009061114657611146612962565b60200260200101906001600160a01b031690816001600160a01b03168152505073ae13d989dac2f0debff460ac112a837c89baa7cd8160018151811061118e5761118e612962565b6001600160a01b0392831660209182029290920101526001546009546040516370a0823160e01b81529083166004820152849291909116906370a0823190602401602060405180830381865afa1580156111ec573d6000803e3d6000fd5b505050506040513d601f19601f820116820180604052508101906112109190612871565b106113a4576001546009546040516323b872dd60e01b81526001600160a01b039182166004820152306024820152604481018590529116906323b872dd906064016020604051808303816000875af1158015611270573d6000803e3d6000fd5b505050506040513d601f19601f82011682018060405250810190611294919061291e565b5060015460075460405163095ea7b360e01b81526001600160a01b0391821660048201526024810185905291169063095ea7b3906044016020604051808303816000875af11580156112ea573d6000803e3d6000fd5b505050506040513d601f19601f8201168201806040525081019061130e919061291e565b50600754600a546001600160a01b03918216916318cbafe591859160009186911661133b426103e8612993565b6040518663ffffffff1660e01b815260040161135b9594939291906129e6565b6000604051808303816000875af115801561137a573d6000803e3d6000fd5b505050506040513d6000823e601f3d908101601f191682016040526113a29190810190612a57565b505b505050565b333b156113ef5760405162461bcd60e51b815260206004820152601460248201527318dbdb9d1c9858dd081b9bdd08185b1b1bddd95960621b6044820152606401610622565b33321461143e5760405162461bcd60e51b815260206004820152601a60248201527f70726f787920636f6e7472616374206e6f7420616c6c6f7765640000000000006044820152606401610622565b60036000828152600e602052604090206001015460ff16600381111561146657611466612747565b146114c35760405162461bcd60e51b815260206004820152602760248201527f4c6f74746572793a2057696e6e696e67204e756d62657273206e6f742063686f6044820152661cd95b881e595d60ca1b6064820152608401610622565b60006114cf33836116d1565b1161151c5760405162461bcd60e51b815260206004820152601960248201527f4c6f74746572793a204e6f7468696e6720746f20636c61696d000000000000006044820152606401610622565b336000908152600d6020908152604080832084845290915290205460ff161561159e5760405162461bcd60e51b815260206004820152602e60248201527f4c6f74746572793a2055736572206861766520616c726561647920636c61696d60448201526d656420686973207265776172647360901b6064820152608401610622565b336000818152600d602090815260408083208584529091528120805460ff19166001179055906115ce90836116d1565b6001546040516370a0823160e01b81523060048201529192506001600160a01b0316906370a0823190602401602060405180830381865afa158015611617573d6000803e3d6000fd5b505050506040513d601f19601f8201168201806040525081019061163b9190612871565b61164533846116d1565b11156116ba576001546040516370a0823160e01b81523060048201526001600160a01b03909116906370a0823190602401602060405180830381865afa158015611693573d6000803e3d6000fd5b505050506040513d601f19601f820116820180604052508101906116b79190612871565b90505b6001546109a2906001600160a01b03163383612115565b604080516003808252608082019092526000918291906020820160608036833750506040805160038082526080820190925292935060009291506020820160608036833701905050905061172484611abc565b60e001516001600160a01b0386166000908152600c6020908152604080832088845282529182902080548351818402810184019094528084529394506117c89390918301828280156117bd57602002820191906000526020600020906000905b82829054906101000a900461ffff1661ffff16815260200190600201906020826001010492830192600103820291508084116117845790505b505050505082611987565b9150816000815181106117dd576117dd612962565b602002602001015161ffff16600014156117fc57600092505050610a3e565b60005b6002811161197e57600083828151811061181b5761181b612962565b602002602001015161ffff16111561196c5760005b6002811161196a5783828151811061184a5761184a612962565b602002602001015161ffff16600e6000888152602001908152602001600020600601828154811061187d5761187d612962565b60009182526020909120601082040154600f9091166002026101000a900461ffff161415611958576000868152600e6020526040902060058101546004909101546127109161ffff16906118d090610445565b6000898152600e602052604090206002018054859081106118f3576118f3612962565b90600052602060002090601091828204019190066002029054906101000a900461ffff1661ffff1661192591906128ca565b61193790670de0b6b3a76400006128ca565b61194191906128ca565b61194b91906128b6565b6119559086612993565b94505b80611962816129cb565b915050611830565b505b80611976816129cb565b9150506117ff565b50505092915050565b6040805160038082526080820190925260609160208201838036833701905050905060005b8251811015611ab55760005b8451811015611aa2578382815181106119d3576119d3612962565b602002602001015161ffff168582815181106119f1576119f1612962565b602002602001015161ffff161415611a905760005b6003811015611a8e57838181518110611a2157611a21612962565b602002602001015161ffff1660001415611a7c57858281518110611a4757611a47612962565b6020026020010151848281518110611a6157611a61612962565b602002602001019061ffff16908161ffff1681525050611a8e565b80611a86816129cb565b915050611a06565b505b80611a9a816129cb565b9150506119b8565b5080611aad816129cb565b9150506119ac565b5092915050565b604080516101008101825260008082526020820181905260609282018390528282018190526080820181905260a0820181905260c082015260e08101919091526000828152600e602090815260409182902082516101008101909352805483526001810154909183019060ff166003811115611b3a57611b3a612747565b6003811115611b4b57611b4b612747565b815260200160028201805480602002602001604051908101604052809291908181526020018280548015611bc657602002820191906000526020600020906000905b82829054906101000a900461ffff1661ffff1681526020019060020190602082600101049283019260010382029150808411611b8d5790505b505050918352505060038201546020808301919091526004830154604080840191909152600584015461ffff80821660608601526201000090910416608084015260068401805482518185028101850190935280835260a0909401939192909190830182828015611c7e57602002820191906000526020600020906000905b82829054906101000a900461ffff1661ffff1681526020019060020190602082600101049283019260010382029150808411611c455790505b5050505050815250509050919050565b6002546001600160a01b03163314611ce05760405162461bcd60e51b815260206004820152601560248201527427b7363c903930b73237b69033b2b732b930ba37b960591b6044820152606401610622565b60026000848152600e602052604090206001015460ff166003811115611d0857611d08612747565b14611d555760405162461bcd60e51b815260206004820152601b60248201527f4c6f74746572793a2044726177206e756d6265727320666972737400000000006044820152606401610622565b6000838152600f602052604090208190556003548214156113a45750506000908152600e60205260409020600101805460ff19166003179055565b6000546001600160a01b03163314611dba5760405162461bcd60e51b8152600401610622906128e9565b6001600160a01b038116611e1f5760405162461bcd60e51b815260206004820152602660248201527f4f776e61626c653a206e6577206f776e657220697320746865207a65726f206160448201526564647265737360d01b6064820152608401610622565b610c78816120c5565b60408051600380825260808201909252606091600091906020820184803683370190505090506000805b600381101561202b576000858152600f602090815260408083205481518084019190915280820186905281518082038301815260609091018252805190830120888452600e90925282206005015490918291611eb390839061ffff16612145565b61ffff16111561201757600085600081518110611ed257611ed2612962565b602002602001015161ffff1660001415611f3b576000888152600e6020526040902060050154611f0790839061ffff16612145565b86600081518110611f1a57611f1a612962565b61ffff9092166020928302919091019091015283611f37816129cb565b9450505b60005b86518160ff161015611fbb57868160ff1681518110611f5f57611f5f612962565b60209081029190910181015160008b8152600e90925260409091206005015461ffff91821691611f9191869116612145565b61ffff161415611fa95781611fa5816129cb565b9250505b80611fb3816129ab565b915050611f3e565b5080612015576000888152600e6020526040902060050154611fe290839061ffff16612145565b868581518110611ff457611ff4612962565b61ffff9092166020928302919091019091015283612011816129cb565b9450505b505b83612021816129cb565b9450505050611e52565b6000858152600e602090815260409091208451612050926006909201918601906123ab565b5091949350505050565b6040516001600160a01b03808516602483015283166044820152606481018290526113a29085906323b872dd60e01b906084015b60408051601f198184030181529190526020810180516001600160e01b03166001600160e01b031990931692909217909152612158565b600080546001600160a01b038381166001600160a01b0319831681178455604051919092169283917f8be0079c531659141344cd1fd0a4f28419497f9722a3daafe3b4186f6b6457e09190a35050565b6040516001600160a01b0383166024820152604481018290526113a490849063a9059cbb60e01b9060640161208e565b60006121518284612add565b9392505050565b60006121ad826040518060400160405280602081526020017f5361666545524332303a206c6f772d6c6576656c2063616c6c206661696c6564815250856001600160a01b031661222a9092919063ffffffff16565b8051909150156113a457808060200190518101906121cb919061291e565b6113a45760405162461bcd60e51b815260206004820152602a60248201527f5361666545524332303a204552433230206f7065726174696f6e20646964206e6044820152691bdd081cdd58d8d9595960b21b6064820152608401610622565b60606122398484600085612241565b949350505050565b6060824710156122a25760405162461bcd60e51b815260206004820152602660248201527f416464726573733a20696e73756666696369656e742062616c616e636520666f6044820152651c8818d85b1b60d21b6064820152608401610622565b6001600160a01b0385163b6122f95760405162461bcd60e51b815260206004820152601d60248201527f416464726573733a2063616c6c20746f206e6f6e2d636f6e74726163740000006044820152606401610622565b600080866001600160a01b031685876040516123159190612b1d565b60006040518083038185875af1925050503d8060008114612352576040519150601f19603f3d011682016040523d82523d6000602084013e612357565b606091505b5091509150612367828286612372565b979650505050505050565b60608315612381575081612151565b8251156123915782518084602001fd5b8160405162461bcd60e51b81526004016106229190612b39565b82805482825590600052602060002090600f016010900481019282156124445791602002820160005b8382111561241457835183826101000a81548161ffff021916908361ffff16021790555092602001926002016020816001010492830192600103026123d4565b80156124425782816101000a81549061ffff0219169055600201602081600101049283019260010302612414565b505b50612450929150612454565b5090565b5b808211156124505760008155600101612455565b60006020828403121561247b57600080fd5b5035919050565b80356001600160a01b038116811461249957600080fd5b919050565b600080604083850312156124b157600080fd5b6124ba83612482565b946020939093013593505050565b6020808252825182820181905260009190848201906040850190845b8181101561250457835161ffff16835292840192918401916001016124e4565b50909695505050505050565b60008060006060848603121561252557600080fd5b61252e84612482565b95602085013595506040909401359392505050565b60006020828403121561255557600080fd5b61215182612482565b803561ffff8116811461249957600080fd5b60008060008060006080868803121561258857600080fd5b853567ffffffffffffffff808211156125a057600080fd5b818801915088601f8301126125b457600080fd5b8135818111156125c357600080fd5b8960208260051b85010111156125d857600080fd5b602092830197509550508601359250604086013591506125fa6060870161255e565b90509295509295909350565b634e487b7160e01b600052604160045260246000fd5b604051601f8201601f1916810167ffffffffffffffff8111828210171561264557612645612606565b604052919050565b600067ffffffffffffffff82111561266757612667612606565b5060051b60200190565b600082601f83011261268257600080fd5b813560206126976126928361264d565b61261c565b82815260059290921b840181019181810190868411156126b657600080fd5b8286015b848110156126d8576126cb8161255e565b83529183019183016126ba565b509695505050505050565b600080604083850312156126f657600080fd5b823567ffffffffffffffff8082111561270e57600080fd5b61271a86838701612671565b9350602085013591508082111561273057600080fd5b5061273d85828601612671565b9150509250929050565b634e487b7160e01b600052602160045260246000fd5b600081518084526020808501945080840160005b8381101561279157815161ffff1687529582019590820190600101612771565b509495945050505050565b602081528151602082015260006020830151600481106127cc57634e487b7160e01b600052602160045260246000fd5b8060408401525060408301516101008060608501526127ef61012085018361275d565b915060608501516080850152608085015160a085015260a085015161281a60c086018261ffff169052565b5060c085015161ffff811660e08601525060e0850151848303601f1901828601526105ee838261275d565b60008060006060848603121561285a57600080fd5b505081359360208301359350604090920135919050565b60006020828403121561288357600080fd5b5051919050565b634e487b7160e01b600052601260045260246000fd5b634e487b7160e01b600052601160045260246000fd5b6000826128c5576128c561288a565b500490565b60008160001904831182151516156128e4576128e46128a0565b500290565b6020808252818101527f4f776e61626c653a2063616c6c6572206973206e6f7420746865206f776e6572604082015260600190565b60006020828403121561293057600080fd5b8151801515811461215157600080fd5b600061ffff80831681811415612958576129586128a0565b6001019392505050565b634e487b7160e01b600052603260045260246000fd5b60006020828403121561298a57600080fd5b6121518261255e565b600082198211156129a6576129a66128a0565b500190565b600060ff821660ff8114156129c2576129c26128a0565b60010192915050565b60006000198214156129df576129df6128a0565b5060010190565b600060a082018783526020878185015260a0604085015281875180845260c086019150828901935060005b81811015612a365784516001600160a01b031683529383019391830191600101612a11565b50506001600160a01b03969096166060850152505050608001529392505050565b60006020808385031215612a6a57600080fd5b825167ffffffffffffffff811115612a8157600080fd5b8301601f81018513612a9257600080fd5b8051612aa06126928261264d565b81815260059190911b82018301908381019087831115612abf57600080fd5b928401925b8284101561236757835182529284019290840190612ac4565b600082612aec57612aec61288a565b500690565b60005b83811015612b0c578181015183820152602001612af4565b838111156113a25750506000910152565b60008251612b2f818460208701612af1565b9190910192915050565b6020815260008251806020840152612b58816040850160208701612af1565b601f01601f1916919091016040019291505056fea26469706673582212208f740ac0b46869c1e72fdc3ced17fe67d94ba7f9bdbb5c411f1f002f1fdf827164736f6c634300080c00334c6f74746572793a20506169722063616e27742062652061646472657373207a",
  "devdoc": {
    "kind": "dev",
    "methods": {
      "createNewLotto(uint16[],uint256,uint256,uint16)": {
        "params": {
          "startBlock_": "The block number for the beginning of the          lottery."
        }
      },
      "owner()": {
        "details": "Returns the address of the current owner."
      },
      "renounceOwnership()": {
        "details": "Leaves the contract without owner. It will not be possible to call `onlyOwner` functions anymore. Can only be called by the current owner. NOTE: Renouncing ownership will leave the contract without an owner, thereby removing any functionality that is only available to the owner."
      },
      "transferOwnership(address)": {
        "details": "Transfers ownership of the contract to a new account (`newOwner`). Can only be called by the current owner."
      }
    },
    "version": 1
  },
  "userdoc": {
    "kind": "user",
    "methods": {},
    "version": 1
  },
  "storageLayout": {
    "storage": [
      {
        "astId": 55,
        "contract": "contracts/Lottery.sol:Lottery",
        "label": "_owner",
        "offset": 0,
        "slot": "0",
        "type": "t_address"
      },
      {
        "astId": 1748,
        "contract": "contracts/Lottery.sol:Lottery",
        "label": "token",
        "offset": 0,
        "slot": "1",
        "type": "t_contract(IERC20)230"
      },
      {
        "astId": 1751,
        "contract": "contracts/Lottery.sol:Lottery",
        "label": "randomGenerator_",
        "offset": 0,
        "slot": "2",
        "type": "t_contract(IRandomNumberGenerator)3046"
      },
      {
        "astId": 1753,
        "contract": "contracts/Lottery.sol:Lottery",
        "label": "requestId_",
        "offset": 0,
        "slot": "3",
        "type": "t_bytes32"
      },
      {
        "astId": 1755,
        "contract": "contracts/Lottery.sol:Lottery",
        "label": "lotteryIdCounter_",
        "offset": 0,
        "slot": "4",
        "type": "t_uint256"
      },
      {
        "astId": 1758,
        "contract": "contracts/Lottery.sol:Lottery",
        "label": "priceFeed",
        "offset": 0,
        "slot": "5",
        "type": "t_contract(AggregatorInterface)47"
      },
      {
        "astId": 1761,
        "contract": "contracts/Lottery.sol:Lottery",
        "label": "pair",
        "offset": 0,
        "slot": "6",
        "type": "t_contract(IApePair)1325"
      },
      {
        "astId": 1764,
        "contract": "contracts/Lottery.sol:Lottery",
        "label": "router",
        "offset": 0,
        "slot": "7",
        "type": "t_contract(IApeRouter02)1721"
      },
      {
        "astId": 1769,
        "contract": "contracts/Lottery.sol:Lottery",
        "label": "burnReserve",
        "offset": 0,
        "slot": "8",
        "type": "t_address"
      },
      {
        "astId": 1771,
        "contract": "contracts/Lottery.sol:Lottery",
        "label": "liquidityReserve",
        "offset": 0,
        "slot": "9",
        "type": "t_address"
      },
      {
        "astId": 1773,
        "contract": "contracts/Lottery.sol:Lottery",
        "label": "treasury",
        "offset": 0,
        "slot": "10",
        "type": "t_address"
      },
      {
        "astId": 1777,
        "contract": "contracts/Lottery.sol:Lottery",
        "label": "currentTicket",
        "offset": 0,
        "slot": "11",
        "type": "t_mapping(t_uint256,t_uint16)"
      },
      {
        "astId": 1784,
        "contract": "contracts/Lottery.sol:Lottery",
        "label": "usersTickets",
        "offset": 0,
        "slot": "12",
        "type": "t_mapping(t_address,t_mapping(t_uint256,t_array(t_uint16)dyn_storage))"
      },
      {
        "astId": 1790,
        "contract": "contracts/Lottery.sol:Lottery",
        "label": "alreadyClaimed",
        "offset": 0,
        "slot": "13",
        "type": "t_mapping(t_address,t_mapping(t_uint256,t_bool))"
      },
      {
        "astId": 1820,
        "contract": "contracts/Lottery.sol:Lottery",
        "label": "allLotteries_",
        "offset": 0,
        "slot": "14",
        "type": "t_mapping(t_uint256,t_struct(LottoInfo)1815_storage)"
      },
      {
        "astId": 1824,
        "contract": "contracts/Lottery.sol:Lottery",
        "label": "rendomNumbers",
        "offset": 0,
        "slot": "15",
        "type": "t_mapping(t_uint256,t_uint256)"
      }
    ],
    "types": {
      "t_address": {
        "encoding": "inplace",
        "label": "address",
        "numberOfBytes": "20"
      },
      "t_array(t_uint16)dyn_storage": {
        "base": "t_uint16",
        "encoding": "dynamic_array",
        "label": "uint16[]",
        "numberOfBytes": "32"
      },
      "t_bool": {
        "encoding": "inplace",
        "label": "bool",
        "numberOfBytes": "1"
      },
      "t_bytes32": {
        "encoding": "inplace",
        "label": "bytes32",
        "numberOfBytes": "32"
      },
      "t_contract(AggregatorInterface)47": {
        "encoding": "inplace",
        "label": "contract AggregatorInterface",
        "numberOfBytes": "20"
      },
      "t_contract(IApePair)1325": {
        "encoding": "inplace",
        "label": "contract IApePair",
        "numberOfBytes": "20"
      },
      "t_contract(IApeRouter02)1721": {
        "encoding": "inplace",
        "label": "contract IApeRouter02",
        "numberOfBytes": "20"
      },
      "t_contract(IERC20)230": {
        "encoding": "inplace",
        "label": "contract IERC20",
        "numberOfBytes": "20"
      },
      "t_contract(IRandomNumberGenerator)3046": {
        "encoding": "inplace",
        "label": "contract IRandomNumberGenerator",
        "numberOfBytes": "20"
      },
      "t_enum(Status)1795": {
        "encoding": "inplace",
        "label": "enum Lottery.Status",
        "numberOfBytes": "1"
      },
      "t_mapping(t_address,t_mapping(t_uint256,t_array(t_uint16)dyn_storage))": {
        "encoding": "mapping",
        "key": "t_address",
        "label": "mapping(address => mapping(uint256 => uint16[]))",
        "numberOfBytes": "32",
        "value": "t_mapping(t_uint256,t_array(t_uint16)dyn_storage)"
      },
      "t_mapping(t_address,t_mapping(t_uint256,t_bool))": {
        "encoding": "mapping",
        "key": "t_address",
        "label": "mapping(address => mapping(uint256 => bool))",
        "numberOfBytes": "32",
        "value": "t_mapping(t_uint256,t_bool)"
      },
      "t_mapping(t_uint256,t_array(t_uint16)dyn_storage)": {
        "encoding": "mapping",
        "key": "t_uint256",
        "label": "mapping(uint256 => uint16[])",
        "numberOfBytes": "32",
        "value": "t_array(t_uint16)dyn_storage"
      },
      "t_mapping(t_uint256,t_bool)": {
        "encoding": "mapping",
        "key": "t_uint256",
        "label": "mapping(uint256 => bool)",
        "numberOfBytes": "32",
        "value": "t_bool"
      },
      "t_mapping(t_uint256,t_struct(LottoInfo)1815_storage)": {
        "encoding": "mapping",
        "key": "t_uint256",
        "label": "mapping(uint256 => struct Lottery.LottoInfo)",
        "numberOfBytes": "32",
        "value": "t_struct(LottoInfo)1815_storage"
      },
      "t_mapping(t_uint256,t_uint16)": {
        "encoding": "mapping",
        "key": "t_uint256",
        "label": "mapping(uint256 => uint16)",
        "numberOfBytes": "32",
        "value": "t_uint16"
      },
      "t_mapping(t_uint256,t_uint256)": {
        "encoding": "mapping",
        "key": "t_uint256",
        "label": "mapping(uint256 => uint256)",
        "numberOfBytes": "32",
        "value": "t_uint256"
      },
      "t_struct(LottoInfo)1815_storage": {
        "encoding": "inplace",
        "label": "struct Lottery.LottoInfo",
        "members": [
          {
            "astId": 1797,
            "contract": "contracts/Lottery.sol:Lottery",
            "label": "lotteryID",
            "offset": 0,
            "slot": "0",
            "type": "t_uint256"
          },
          {
            "astId": 1800,
            "contract": "contracts/Lottery.sol:Lottery",
            "label": "lotteryStatus",
            "offset": 0,
            "slot": "1",
            "type": "t_enum(Status)1795"
          },
          {
            "astId": 1803,
            "contract": "contracts/Lottery.sol:Lottery",
            "label": "prizeDistributionPercents",
            "offset": 0,
            "slot": "2",
            "type": "t_array(t_uint16)dyn_storage"
          },
          {
            "astId": 1805,
            "contract": "contracts/Lottery.sol:Lottery",
            "label": "startBlock",
            "offset": 0,
            "slot": "3",
            "type": "t_uint256"
          },
          {
            "astId": 1807,
            "contract": "contracts/Lottery.sol:Lottery",
            "label": "ticketPrice",
            "offset": 0,
            "slot": "4",
            "type": "t_uint256"
          },
          {
            "astId": 1809,
            "contract": "contracts/Lottery.sol:Lottery",
            "label": "ticketsCount",
            "offset": 0,
            "slot": "5",
            "type": "t_uint16"
          },
          {
            "astId": 1811,
            "contract": "contracts/Lottery.sol:Lottery",
            "label": "ticketsSold",
            "offset": 2,
            "slot": "5",
            "type": "t_uint16"
          },
          {
            "astId": 1814,
            "contract": "contracts/Lottery.sol:Lottery",
            "label": "winningNumbers",
            "offset": 0,
            "slot": "6",
            "type": "t_array(t_uint16)dyn_storage"
          }
        ],
        "numberOfBytes": "224"
      },
      "t_uint16": {
        "encoding": "inplace",
        "label": "uint16",
        "numberOfBytes": "2"
      },
      "t_uint256": {
        "encoding": "inplace",
        "label": "uint256",
        "numberOfBytes": "32"
      }
    }
  }
}