{
  "address": "0xbaE940b0ffEa8c4f8DDC6E05dFd14931a320578E",
  "abi": [
    {
      "inputs": [
        {
          "internalType": "address",
          "name": "burnReserve_",
          "type": "address"
        },
        {
          "internalType": "address",
          "name": "priceFeed_",
          "type": "address"
        },
        {
          "internalType": "contract IApePair",
          "name": "pair_",
          "type": "address"
        },
        {
          "internalType": "contract IApeRouter02",
          "name": "router_",
          "type": "address"
        },
        {
          "internalType": "contract IERC20",
          "name": "token_",
          "type": "address"
        },
        {
          "internalType": "uint256",
          "name": "freeTrialDuration_",
          "type": "uint256"
        },
        {
          "internalType": "address",
          "name": "treasury_",
          "type": "address"
        },
        {
          "internalType": "address",
          "name": "liquidityReserve_",
          "type": "address"
        }
      ],
      "stateMutability": "nonpayable",
      "type": "constructor"
    },
    {
      "anonymous": false,
      "inputs": [
        {
          "indexed": false,
          "internalType": "uint256",
          "name": "newDuration",
          "type": "uint256"
        }
      ],
      "name": "FreeTrialDurationChanged",
      "type": "event"
    },
    {
      "anonymous": false,
      "inputs": [
        {
          "indexed": false,
          "internalType": "uint256",
          "name": "lessonId",
          "type": "uint256"
        },
        {
          "indexed": false,
          "internalType": "bool",
          "name": "availability",
          "type": "bool"
        }
      ],
      "name": "LessonAvailabilityChanged",
      "type": "event"
    },
    {
      "anonymous": false,
      "inputs": [
        {
          "indexed": false,
          "internalType": "uint256",
          "name": "lessonId",
          "type": "uint256"
        },
        {
          "indexed": false,
          "internalType": "uint256",
          "name": "price",
          "type": "uint256"
        }
      ],
      "name": "LessonPriceChanged",
      "type": "event"
    },
    {
      "anonymous": false,
      "inputs": [
        {
          "indexed": false,
          "internalType": "uint256",
          "name": "lessonId",
          "type": "uint256"
        },
        {
          "indexed": false,
          "internalType": "uint256",
          "name": "price",
          "type": "uint256"
        },
        {
          "indexed": false,
          "internalType": "bool",
          "name": "availability",
          "type": "bool"
        }
      ],
      "name": "NewLessonAdded",
      "type": "event"
    },
    {
      "anonymous": false,
      "inputs": [
        {
          "indexed": false,
          "internalType": "uint256",
          "name": "months",
          "type": "uint256"
        },
        {
          "indexed": false,
          "internalType": "uint256",
          "name": "price",
          "type": "uint256"
        }
      ],
      "name": "NewsSubscribtionPlanAded",
      "type": "event"
    },
    {
      "anonymous": false,
      "inputs": [
        {
          "indexed": true,
          "internalType": "address",
          "name": "previousOwner",
          "type": "address"
        },
        {
          "indexed": true,
          "internalType": "address",
          "name": "newOwner",
          "type": "address"
        }
      ],
      "name": "OwnershipTransferred",
      "type": "event"
    },
    {
      "anonymous": false,
      "inputs": [
        {
          "indexed": false,
          "internalType": "uint256",
          "name": "lessonId",
          "type": "uint256"
        },
        {
          "indexed": false,
          "internalType": "address",
          "name": "user",
          "type": "address"
        },
        {
          "indexed": false,
          "internalType": "uint256",
          "name": "price",
          "type": "uint256"
        },
        {
          "indexed": false,
          "internalType": "uint256",
          "name": "tokenAmount",
          "type": "uint256"
        }
      ],
      "name": "PaidForLesson",
      "type": "event"
    },
    {
      "anonymous": false,
      "inputs": [
        {
          "indexed": false,
          "internalType": "uint256",
          "name": "amount",
          "type": "uint256"
        }
      ],
      "name": "ProfitBurnt",
      "type": "event"
    },
    {
      "anonymous": false,
      "inputs": [
        {
          "indexed": false,
          "internalType": "uint256",
          "name": "months",
          "type": "uint256"
        },
        {
          "indexed": false,
          "internalType": "address",
          "name": "user",
          "type": "address"
        },
        {
          "indexed": false,
          "internalType": "uint256",
          "name": "subscribtionEndBlock",
          "type": "uint256"
        },
        {
          "indexed": false,
          "internalType": "uint256",
          "name": "price",
          "type": "uint256"
        },
        {
          "indexed": false,
          "internalType": "uint256",
          "name": "tokenAmount",
          "type": "uint256"
        }
      ],
      "name": "SubscibtionComplited",
      "type": "event"
    },
    {
      "inputs": [],
      "name": "BLOCKS_PER_MONTH",
      "outputs": [
        {
          "internalType": "uint256",
          "name": "",
          "type": "uint256"
        }
      ],
      "stateMutability": "view",
      "type": "function"
    },
    {
      "inputs": [
        {
          "internalType": "uint256",
          "name": "price_",
          "type": "uint256"
        },
        {
          "internalType": "uint16",
          "name": "tutorPercent_",
          "type": "uint16"
        },
        {
          "internalType": "uint16",
          "name": "profitPercent_",
          "type": "uint16"
        },
        {
          "internalType": "bool",
          "name": "available_",
          "type": "bool"
        },
        {
          "internalType": "address",
          "name": "tutor_",
          "type": "address"
        }
      ],
      "name": "addLesson",
      "outputs": [],
      "stateMutability": "nonpayable",
      "type": "function"
    },
    {
      "inputs": [
        {
          "internalType": "uint256",
          "name": "months_",
          "type": "uint256"
        },
        {
          "internalType": "uint256",
          "name": "price_",
          "type": "uint256"
        }
      ],
      "name": "addNewsSubscibtionPlan",
      "outputs": [],
      "stateMutability": "nonpayable",
      "type": "function"
    },
    {
      "inputs": [
        {
          "internalType": "uint256",
          "name": "amount_",
          "type": "uint256"
        },
        {
          "internalType": "uint256",
          "name": "percent_",
          "type": "uint256"
        }
      ],
      "name": "burnProfit",
      "outputs": [],
      "stateMutability": "nonpayable",
      "type": "function"
    },
    {
      "inputs": [],
      "name": "burnReserve",
      "outputs": [
        {
          "internalType": "address",
          "name": "",
          "type": "address"
        }
      ],
      "stateMutability": "view",
      "type": "function"
    },
    {
      "inputs": [
        {
          "internalType": "uint256",
          "name": "newDuration_",
          "type": "uint256"
        }
      ],
      "name": "changeFreeTrialDurtion",
      "outputs": [],
      "stateMutability": "nonpayable",
      "type": "function"
    },
    {
      "inputs": [
        {
          "internalType": "uint256",
          "name": "lessonId_",
          "type": "uint256"
        },
        {
          "internalType": "bool",
          "name": "availability_",
          "type": "bool"
        }
      ],
      "name": "changeLessonAvailability",
      "outputs": [],
      "stateMutability": "nonpayable",
      "type": "function"
    },
    {
      "inputs": [
        {
          "internalType": "uint256",
          "name": "lessonId_",
          "type": "uint256"
        },
        {
          "internalType": "uint256",
          "name": "newPrice_",
          "type": "uint256"
        }
      ],
      "name": "changeLessonPrice",
      "outputs": [],
      "stateMutability": "nonpayable",
      "type": "function"
    },
    {
      "inputs": [],
      "name": "freeTrialActivation",
      "outputs": [],
      "stateMutability": "nonpayable",
      "type": "function"
    },
    {
      "inputs": [],
      "name": "freeTrialDuration",
      "outputs": [
        {
          "internalType": "uint256",
          "name": "",
          "type": "uint256"
        }
      ],
      "stateMutability": "view",
      "type": "function"
    },
    {
      "inputs": [
        {
          "internalType": "uint256",
          "name": "price_",
          "type": "uint256"
        }
      ],
      "name": "getTokenAmountForCurrentPrice",
      "outputs": [
        {
          "internalType": "uint256",
          "name": "",
          "type": "uint256"
        }
      ],
      "stateMutability": "view",
      "type": "function"
    },
    {
      "inputs": [
        {
          "internalType": "uint256",
          "name": "",
          "type": "uint256"
        }
      ],
      "name": "lesson",
      "outputs": [
        {
          "internalType": "uint256",
          "name": "price",
          "type": "uint256"
        },
        {
          "internalType": "uint16",
          "name": "tutorPercent",
          "type": "uint16"
        },
        {
          "internalType": "uint16",
          "name": "profitPercent",
          "type": "uint16"
        },
        {
          "internalType": "bool",
          "name": "available",
          "type": "bool"
        },
        {
          "internalType": "address",
          "name": "tutor",
          "type": "address"
        }
      ],
      "stateMutability": "view",
      "type": "function"
    },
    {
      "inputs": [
        {
          "internalType": "address",
          "name": "",
          "type": "address"
        },
        {
          "internalType": "uint256",
          "name": "",
          "type": "uint256"
        }
      ],
      "name": "lessonAvailability",
      "outputs": [
        {
          "internalType": "bool",
          "name": "",
          "type": "bool"
        }
      ],
      "stateMutability": "view",
      "type": "function"
    },
    {
      "inputs": [],
      "name": "lessonsId",
      "outputs": [
        {
          "internalType": "uint256",
          "name": "",
          "type": "uint256"
        }
      ],
      "stateMutability": "view",
      "type": "function"
    },
    {
      "inputs": [],
      "name": "liquidityReserve",
      "outputs": [
        {
          "internalType": "address",
          "name": "",
          "type": "address"
        }
      ],
      "stateMutability": "view",
      "type": "function"
    },
    {
      "inputs": [
        {
          "internalType": "address",
          "name": "user_",
          "type": "address"
        }
      ],
      "name": "newsAvailability",
      "outputs": [
        {
          "internalType": "bool",
          "name": "",
          "type": "bool"
        }
      ],
      "stateMutability": "view",
      "type": "function"
    },
    {
      "inputs": [],
      "name": "owner",
      "outputs": [
        {
          "internalType": "address",
          "name": "",
          "type": "address"
        }
      ],
      "stateMutability": "view",
      "type": "function"
    },
    {
      "inputs": [],
      "name": "pair",
      "outputs": [
        {
          "internalType": "contract IApePair",
          "name": "",
          "type": "address"
        }
      ],
      "stateMutability": "view",
      "type": "function"
    },
    {
      "inputs": [
        {
          "internalType": "uint256",
          "name": "lessonId_",
          "type": "uint256"
        }
      ],
      "name": "payForLesson",
      "outputs": [],
      "stateMutability": "nonpayable",
      "type": "function"
    },
    {
      "inputs": [
        {
          "internalType": "uint256",
          "name": "lessonId_",
          "type": "uint256"
        },
        {
          "internalType": "uint256",
          "name": "amountOutMin",
          "type": "uint256"
        },
        {
          "internalType": "uint256",
          "name": "deadline",
          "type": "uint256"
        }
      ],
      "name": "payForLessonWithBNB",
      "outputs": [],
      "stateMutability": "payable",
      "type": "function"
    },
    {
      "inputs": [],
      "name": "priceFeed",
      "outputs": [
        {
          "internalType": "contract AggregatorInterface",
          "name": "",
          "type": "address"
        }
      ],
      "stateMutability": "view",
      "type": "function"
    },
    {
      "inputs": [],
      "name": "renounceOwnership",
      "outputs": [],
      "stateMutability": "nonpayable",
      "type": "function"
    },
    {
      "inputs": [],
      "name": "router",
      "outputs": [
        {
          "internalType": "contract IApeRouter02",
          "name": "",
          "type": "address"
        }
      ],
      "stateMutability": "view",
      "type": "function"
    },
    {
      "inputs": [
        {
          "internalType": "uint256",
          "name": "months_",
          "type": "uint256"
        }
      ],
      "name": "subscribeForNews",
      "outputs": [],
      "stateMutability": "nonpayable",
      "type": "function"
    },
    {
      "inputs": [
        {
          "internalType": "address",
          "name": "",
          "type": "address"
        }
      ],
      "name": "subscribtionInfo",
      "outputs": [
        {
          "internalType": "uint256",
          "name": "",
          "type": "uint256"
        }
      ],
      "stateMutability": "view",
      "type": "function"
    },
    {
      "inputs": [
        {
          "internalType": "uint256",
          "name": "",
          "type": "uint256"
        }
      ],
      "name": "subscribtionPrice",
      "outputs": [
        {
          "internalType": "uint256",
          "name": "",
          "type": "uint256"
        }
      ],
      "stateMutability": "view",
      "type": "function"
    },
    {
      "inputs": [],
      "name": "token",
      "outputs": [
        {
          "internalType": "contract IERC20",
          "name": "",
          "type": "address"
        }
      ],
      "stateMutability": "view",
      "type": "function"
    },
    {
      "inputs": [
        {
          "internalType": "address",
          "name": "newOwner",
          "type": "address"
        }
      ],
      "name": "transferOwnership",
      "outputs": [],
      "stateMutability": "nonpayable",
      "type": "function"
    },
    {
      "inputs": [],
      "name": "treasury",
      "outputs": [
        {
          "internalType": "address",
          "name": "",
          "type": "address"
        }
      ],
      "stateMutability": "view",
      "type": "function"
    }
  ],
  "transactionHash": "0x46b94d1beb7d1fb063ebb5fde284201b7663ef63b9e21e408ee4460d208567c4",
  "args": [
    "0x7B6a566D303C716dFA5Caa92b5f5e35b911C258d",
    "0x2514895c72f50D8bd4B4F9b1110F0D6bD2c97526",
    "0x9172bC6f337558F15514181b88B9E5e99322FCDd",
    "0xD99D1c33F9fC3444f8101754aBC46c52416550D1",
    "0xd130E6c157EbcEcc619Cde6D8919b1F3b993e1c0",
    50,
    "0xb2444FE0E53378E094736834067c1E2653ec3CAB",
    "0x34DfD5675c12b0d182a8cc2296EfC30296bCF979"
  ],
  "numDeployments": 19,
  "solcInputHash": "cb31f8073c8b98670261f12e4ff69f77",
  "bytecode": "0x60806040523480156200001157600080fd5b5060405162002cb838038062002cb88339810160408190526200003491620003ea565b6200003f3362000381565b6001600160a01b038816620000ae5760405162461bcd60e51b815260206004820152602a60248201527f5061796d656e743a204275726e526573657276652063616e27742062652061646044820152696472657373207a65726f60b01b60648201526084015b60405180910390fd5b6001600160a01b038716620001175760405162461bcd60e51b815260206004820152602860248201527f5061796d656e743a205072696365466565642063616e27742062652061646472604482015267657373207a65726f60c01b6064820152608401620000a5565b6001600160a01b0386166200016a5760405162461bcd60e51b8152602060048201526023602482015260008051602062002c9883398151915260448201526265726f60e81b6064820152608401620000a5565b6001600160a01b038516620001d05760405162461bcd60e51b815260206004820152602560248201527f5061796d656e743a20526f757465722063616e27742062652061646472657373604482015264207a65726f60d81b6064820152608401620000a5565b6001600160a01b038416620002235760405162461bcd60e51b8152602060048201526023602482015260008051602062002c9883398151915260448201526265726f60e81b6064820152608401620000a5565b6001600160a01b0382166200028b5760405162461bcd60e51b815260206004820152602760248201527f5061796d656e743a2054726561737572792063616e27742062652061646472656044820152667373207a65726f60c81b6064820152608401620000a5565b6001600160a01b038116620002fb5760405162461bcd60e51b815260206004820152602f60248201527f5061796d656e743a204c6971756964697479526573657276652063616e27742060448201526e62652061646472657373207a65726f60881b6064820152608401620000a5565b600180546001600160a01b03199081166001600160a01b039a8b1617909155600a80548216988a1698909817909755600b8054881696891696909617909555600c8054871694881694909417909355600980548616928716929092179091556008556002805484169185169190911790556003805490921692169190911790556200049f565b600080546001600160a01b038381166001600160a01b0319831681178455604051919092169283917f8be0079c531659141344cd1fd0a4f28419497f9722a3daafe3b4186f6b6457e09190a35050565b6001600160a01b0381168114620003e757600080fd5b50565b600080600080600080600080610100898b0312156200040857600080fd5b88516200041581620003d1565b60208a01519098506200042881620003d1565b60408a01519097506200043b81620003d1565b60608a01519096506200044e81620003d1565b60808a01519095506200046181620003d1565b60a08a015160c08b015191955093506200047b81620003d1565b60e08a01519092506200048e81620003d1565b809150509295985092959890939650565b6127e980620004af6000396000f3fe6080604052600436106101c25760003560e01c8063a57ad100116100f7578063c409084a11610095578063f0a107f211610064578063f0a107f214610591578063f2fde38b146105b1578063f887ea40146105d1578063fc0c546a146105f157600080fd5b8063c409084a146104f3578063c4ff460714610509578063d912c2c014610536578063e341a9391461057157600080fd5b8063b239c8d5116100d1578063b239c8d5146103f8578063b753bfe914610418578063bf16257a14610438578063bfd2f4c51461045857600080fd5b8063a57ad100146103a2578063a8aa1b31146103c2578063aca455fa146103e257600080fd5b8063715018a6116101645780638da5cb5b1161013e5780638da5cb5b1461033c57806390236bd21461035a57806395f1bfe71461036f57806396ae0d251461038f57600080fd5b8063715018a6146102e757806372180f7c146102fc578063741bef1a1461031c57600080fd5b80631b7b4b5b116101a05780631b7b4b5b146102495780632938c7f6146102795780633ae637a61461028f57806361d027b3146102af57600080fd5b806305f61786146101c757806311dc7a9c146101fa57806319a47c461461021c575b600080fd5b3480156101d357600080fd5b506101e76101e2366004612238565b610611565b6040519081526020015b60405180910390f35b34801561020657600080fd5b5061021a610215366004612251565b6107c4565b005b34801561022857600080fd5b506101e761023736600461228f565b60056020526000908152604090205481565b34801561025557600080fd5b5061026961026436600461228f565b610939565b60405190151581526020016101f1565b34801561028557600080fd5b506101e760075481565b34801561029b57600080fd5b5061021a6102aa366004612238565b610969565b3480156102bb57600080fd5b506002546102cf906001600160a01b031681565b6040516001600160a01b0390911681526020016101f1565b3480156102f357600080fd5b5061021a610b83565b34801561030857600080fd5b5061021a6103173660046122bf565b610bb9565b34801561032857600080fd5b50600a546102cf906001600160a01b031681565b34801561034857600080fd5b506000546001600160a01b03166102cf565b34801561036657600080fd5b5061021a610cb2565b34801561037b57600080fd5b5061021a61038a366004612238565b610d3d565b61021a61039d3660046122ef565b610dbe565b3480156103ae57600080fd5b5061021a6103bd366004612251565b611778565b3480156103ce57600080fd5b50600b546102cf906001600160a01b031681565b3480156103ee57600080fd5b506101e760085481565b34801561040457600080fd5b5061021a610413366004612238565b611890565b34801561042457600080fd5b506003546102cf906001600160a01b031681565b34801561044457600080fd5b506001546102cf906001600160a01b031681565b34801561046457600080fd5b506104b9610473366004612238565b6004602052600090815260409020805460019091015461ffff8082169162010000810490911690640100000000810460ff1690600160281b90046001600160a01b031685565b6040805195865261ffff94851660208701529290931691840191909152151560608301526001600160a01b0316608082015260a0016101f1565b3480156104ff57600080fd5b506101e761023081565b34801561051557600080fd5b506101e7610524366004612238565b600d6020526000908152604090205481565b34801561054257600080fd5b5061026961055136600461231b565b600660209081526000928352604080842090915290825290205460ff1681565b34801561057d57600080fd5b5061021a61058c366004612251565b611bdc565b34801561059d57600080fd5b5061021a6105ac366004612357565b611c4e565b3480156105bd57600080fd5b5061021a6105cc36600461228f565b611e8d565b3480156105dd57600080fd5b50600c546102cf906001600160a01b031681565b3480156105fd57600080fd5b506009546102cf906001600160a01b031681565b600080600a60009054906101000a90046001600160a01b03166001600160a01b03166350d25bcd6040518163ffffffff1660e01b8152600401602060405180830381865afa158015610667573d6000803e3d6000fd5b505050506040513d601f19601f8201168201806040525081019061068b91906123b7565b600954600b546040516370a0823160e01b81526001600160a01b0391821660048201529293506000929116906370a0823190602401602060405180830381865afa1580156106dd573d6000803e3d6000fd5b505050506040513d601f19601f8201168201806040525081019061070191906123b7565b600b546040516370a0823160e01b81526001600160a01b03909116600482015290915060009073ae13d989dac2f0debff460ac112a837c89baa7cd906370a0823190602401602060405180830381865afa158015610763573d6000803e3d6000fd5b505050506040513d601f19601f8201168201806040525081019061078791906123b7565b9050600061079582846123e6565b61079f90856123e6565b9050806107b0876305f5e100612408565b6107ba91906123e6565b9695505050505050565b6000546001600160a01b031633146107f75760405162461bcd60e51b81526004016107ee90612427565b60405180910390fd5b600082116108615760405162461bcd60e51b815260206004820152603160248201527f5061796d656e743a204275726e696e6720616d6f756e74206d7573742062652060448201527067726561746572207468616e207a65726f60781b60648201526084016107ee565b6009546002546001546040516323b872dd60e01b81526001600160a01b03938416936323b872dd9361089e9390821692911690879060040161245c565b6020604051808303816000875af11580156108bd573d6000803e3d6000fd5b505050506040513d601f19601f820116820180604052508101906108e19190612480565b506109016127106108f28385612408565b6108fc91906123e6565b611f28565b6040518281527fc8872fc57e4b0bb8340b153b2bc508a7e033ba7685cb1c870156d3d8e3d55b45906020015b60405180910390a15050565b6001600160a01b03811660009081526005602052604081205443101561096157506001919050565b506000919050565b6000818152600d60205260409020546109cf5760405162461bcd60e51b815260206004820152602260248201527f5061796d656e743a20496e76616c696420737562736372697074696f6e20706c60448201526130b760f11b60648201526084016107ee565b33600090815260056020526040902054431015610a17576109f261023082612408565b3360009081526005602052604081208054909190610a1190849061249d565b90915550505b33600090815260056020526040902054431115610a5557610a3a61023082612408565b610a44904361249d565b336000908152600560205260409020555b6009546002546000838152600d60205260409020546001600160a01b03928316926323b872dd923392911690610a8a90610611565b610a9c90670de0b6b3a7640000612408565b6040518463ffffffff1660e01b8152600401610aba9392919061245c565b6020604051808303816000875af1158015610ad9573d6000803e3d6000fd5b505050506040513d601f19601f82011682018060405250810190610afd9190612480565b5033600081815260056020908152604080832054858452600d909252909120547f6c3f66a4f4732e9e5ce04d6c27fdcc0e5b9b25ac7a1e2c1a9f53f7e8669be4ad9284929091610b4c81610611565b604080519586526001600160a01b039094166020860152928401919091526060830152608082015260a0015b60405180910390a150565b6000546001600160a01b03163314610bad5760405162461bcd60e51b81526004016107ee90612427565b610bb760006121e8565b565b6000546001600160a01b03163314610be35760405162461bcd60e51b81526004016107ee90612427565b600082815260046020526040902054610c0e5760405162461bcd60e51b81526004016107ee906124b5565b60008281526004602052604090206001015460ff6401000000009091041615158115151415610c4f5760405162461bcd60e51b81526004016107ee906124ff565b600082815260046020908152604091829020600101805464ff000000001916640100000000851515908102919091179091558251858152918201527f11769a219a9ff74eb8af54717818f10954671524d2f6cb6e4739a960b531a6f1910161092d565b3360009081526005602052604090205415610d1e5760405162461bcd60e51b815260206004820152602660248201527f5061796d656e743a20596f752063616e27742061637469766174652066726565604482015265081d1c9a585b60d21b60648201526084016107ee565b600854610d2b904361249d565b33600090815260056020526040902055565b6000546001600160a01b03163314610d675760405162461bcd60e51b81526004016107ee90612427565b806008541415610d895760405162461bcd60e51b81526004016107ee906124ff565b60088190556040518181527fac71c23e870ae2b1ee57aa23df3058ae487a0d92e51ddcadd98f0fd6aa5587a790602001610b78565b600083815260046020526040902054610de95760405162461bcd60e51b81526004016107ee906124b5565b600083815260046020526040902060010154640100000000900460ff16610e225760405162461bcd60e51b81526004016107ee90612536565b33600090815260066020908152604080832086845290915290205460ff1615610e8d5760405162461bcd60e51b815260206004820152601c60248201527f5061796d656e743a204c657373656e20616c726561647920706169640000000060448201526064016107ee565b60408051600280825260608201835260009260208301908036833701905050905073ae13d989dac2f0debff460ac112a837c89baa7cd81600081518110610ed657610ed661258e565b6001600160a01b039283166020918202929092010152600954825191169082906001908110610f0757610f0761258e565b6001600160a01b03909216602092830291909101820152600085815260049091526040812054610f3690610611565b610f4890670de0b6b3a7640000612408565b60008681526004602052604081205491925090610f6b906101e2906005906125a4565b610f7d90670de0b6b3a7640000612408565b600c54604051637ff36ab560e01b81529192506000916001600160a01b0390911690637ff36ab5903490610fbb908a90899030908c906004016125ff565b60006040518083038185885af1158015610fd9573d6000803e3d6000fd5b50505050506040513d6000823e601f3d908101601f191682016040526110029190810190612634565b905081816001815181106110185761101861258e565b6020026020010151101561106e5760405162461bcd60e51b815260206004820152601c60248201527f5061796d656e743a20496e73756666696369656e7420746f6b656e730000000060448201526064016107ee565b82816001815181106110825761108261258e565b602002602001015111156113fc573360008181526006602090815260408083208b84528252808320805460ff19166001179055600490915290819020549051600080516020612794833981519152926110de928b9288906126f2565b60405180910390a16009546001546001600160a01b039182169163a9059cbb911661271061110e87611b58612408565b61111891906123e6565b6040516001600160e01b031960e085901b1681526001600160a01b03909216600483015260248201526044016020604051808303816000875af1158015611163573d6000803e3d6000fd5b505050506040513d601f19601f820116820180604052508101906111879190612480565b506009546000888152600460205260409020600101546001600160a01b039182169163a9059cbb91600160281b810490911690612710906111cc9061ffff1688612408565b6111d691906123e6565b6040516001600160e01b031960e085901b1681526001600160a01b03909216600483015260248201526044016020604051808303816000875af1158015611221573d6000803e3d6000fd5b505050506040513d601f19601f820116820180604052508101906112459190612480565b506009546002546000898152600460205260409020600101546001600160a01b039283169263a9059cbb9216906127109061128a9062010000900461ffff1688612408565b61129491906123e6565b6040516001600160e01b031960e085901b1681526001600160a01b03909216600483015260248201526044016020604051808303816000875af11580156112df573d6000803e3d6000fd5b505050506040513d601f19601f820116820180604052508101906113039190612480565b5060095481516001600160a01b039091169063a9059cbb9033908690859060019081106113325761133261258e565b602002602001015161134491906125a4565b6040516001600160e01b031960e085901b1681526001600160a01b03909216600483015260248201526044016020604051808303816000875af115801561138f573d6000803e3d6000fd5b505050506040513d601f19601f820116820180604052508101906113b39190612480565b506113bd83611f28565b60008781526004602052604090819020549051600080516020612794833981519152916113ef918a91339188906126f2565b60405180910390a161176f565b3360008181526006602090815260408083208b84528252808320805460ff191660019081179091556004909252909120548351600080516020612794833981519152938b9390929186919081106114555761145561258e565b602002602001015160405161146d94939291906126f2565b60405180910390a16009546001805483516001600160a01b039384169363a9059cbb939216916127109186919081106114a8576114a861258e565b6020026020010151611b586114bd9190612408565b6114c791906123e6565b6040516001600160e01b031960e085901b1681526001600160a01b03909216600483015260248201526044016020604051808303816000875af1158015611512573d6000803e3d6000fd5b505050506040513d601f19601f820116820180604052508101906115369190612480565b50600954600088815260046020526040902060019081015483516001600160a01b039384169363a9059cbb93600160281b8404909116926127109261ffff90911691879181106115885761158861258e565b602002602001015161159a9190612408565b6115a491906123e6565b6040516001600160e01b031960e085901b1681526001600160a01b03909216600483015260248201526044016020604051808303816000875af11580156115ef573d6000803e3d6000fd5b505050506040513d601f19601f820116820180604052508101906116139190612480565b50600954600254600089815260046020526040902060019081015484516001600160a01b039485169463a9059cbb9416926127109262010000900461ffff169187919081106116645761166461258e565b60200260200101516116769190612408565b61168091906123e6565b6040516001600160e01b031960e085901b1681526001600160a01b03909216600483015260248201526044016020604051808303816000875af11580156116cb573d6000803e3d6000fd5b505050506040513d601f19601f820116820180604052508101906116ef9190612480565b50611713816001815181106117065761170661258e565b6020026020010151611f28565b6000805160206127948339815191528733600460008b8152602001908152602001600020600001548460018151811061174e5761174e61258e565b602002602001015160405161176694939291906126f2565b60405180910390a15b50505050505050565b6000546001600160a01b031633146117a25760405162461bcd60e51b81526004016107ee90612427565b6000828152600460205260409020546117cd5760405162461bcd60e51b81526004016107ee906124b5565b6000828152600460205260409020548114156117fb5760405162461bcd60e51b81526004016107ee906124ff565b806118485760405162461bcd60e51b815260206004820152601c60248201527f5061796d616e743a2050726963652063616e2774206265207a65726f0000000060448201526064016107ee565b60008281526004602090815260409182902083905581518481529081018390527f27eb2a6a1877002210e90c282bf178b040a1a9ee0959c5fca50dc57ed38f465a910161092d565b6000818152600460205260409020546118bb5760405162461bcd60e51b81526004016107ee906124b5565b600081815260046020526040902060010154640100000000900460ff166118f45760405162461bcd60e51b81526004016107ee90612536565b33600090815260066020908152604080832084845290915290205460ff161561195f5760405162461bcd60e51b815260206004820152601c60248201527f5061796d656e743a204c657373656e20616c726561647920706169640000000060448201526064016107ee565b60008181526004602052604081205461197790610611565b61198990670de0b6b3a7640000612408565b6009546001549192506001600160a01b03908116916323b872dd913391166127106119b686611b58612408565b6119c091906123e6565b6040518463ffffffff1660e01b81526004016119de9392919061245c565b6020604051808303816000875af11580156119fd573d6000803e3d6000fd5b505050506040513d601f19601f82011682018060405250810190611a219190612480565b506009546000838152600460205260409020600101546001600160a01b03918216916323b872dd913391600160281b8204169061271090611a669061ffff1687612408565b611a7091906123e6565b6040518463ffffffff1660e01b8152600401611a8e9392919061245c565b6020604051808303816000875af1158015611aad573d6000803e3d6000fd5b505050506040513d601f19601f82011682018060405250810190611ad19190612480565b506009546002546000848152600460205260409020600101546001600160a01b03928316926323b872dd92339291169061271090611b199062010000900461ffff1687612408565b611b2391906123e6565b6040518463ffffffff1660e01b8152600401611b419392919061245c565b6020604051808303816000875af1158015611b60573d6000803e3d6000fd5b505050506040513d601f19601f82011682018060405250810190611b849190612480565b50611b8e81611f28565b3360008181526006602090815260408083208684528252808320805460ff191660011790556004909152908190205490516000805160206127948339815191529261092d92869286906126f2565b6000546001600160a01b03163314611c065760405162461bcd60e51b81526004016107ee90612427565b6000828152600d602090815260409182902083905581518481529081018390527fc2830dbedcd7a55d63c46691b9850d75f5ef162509cefca7bd565131b12ef05c910161092d565b6000546001600160a01b03163314611c785760405162461bcd60e51b81526004016107ee90612427565b84611cc55760405162461bcd60e51b815260206004820152601c60248201527f5061796d616e743a2050726963652063616e2774206265207a65726f0000000060448201526064016107ee565b6001600160a01b038116611d275760405162461bcd60e51b8152602060048201526024808201527f5061796d656e743a205475746f7220616464726573732063616e2774206265206044820152637a65726f60e01b60648201526084016107ee565b611d318385612716565b61ffff16610bb814611d855760405162461bcd60e51b815260206004820152601960248201527f5061796d656e743a20496e76616c69642070657263656e74730000000000000060448201526064016107ee565b600780546000908152600460209081526040808320899055835483528083206001908101805461ffff191661ffff8b811691909117909155855485528285208201805463ffff0000191662010000928b1692909202919091179055845484528184208101805464ff00000000191664010000000089151590810291909117909155855485529382902001805465010000000000600160c81b031916600160281b6001600160a01b0388160217905592548351908152908101889052918201527f4bd193a15349bf4e433e3f60c4ffc84ac6e62250708d4a1d047211225c40bfbb9060600160405180910390a160078054906000611e818361273c565b91905055505050505050565b6000546001600160a01b03163314611eb75760405162461bcd60e51b81526004016107ee90612427565b6001600160a01b038116611f1c5760405162461bcd60e51b815260206004820152602660248201527f4f776e61626c653a206e6577206f776e657220697320746865207a65726f206160448201526564647265737360d01b60648201526084016107ee565b611f25816121e8565b50565b6000612710611f3983611770612408565b611f4391906123e6565b6040805160028082526060820183529293506000929091602083019080368337505060095482519293506001600160a01b031691839150600090611f8957611f8961258e565b60200260200101906001600160a01b031690816001600160a01b03168152505073ae13d989dac2f0debff460ac112a837c89baa7cd81600181518110611fd157611fd161258e565b6001600160a01b0392831660209182029290920101526009546003546040516370a0823160e01b81529083166004820152849291909116906370a0823190602401602060405180830381865afa15801561202f573d6000803e3d6000fd5b505050506040513d601f19601f8201168201806040525081019061205391906123b7565b106121e3576009546003546040516323b872dd60e01b81526001600160a01b03928316926323b872dd92612090929116903090879060040161245c565b6020604051808303816000875af11580156120af573d6000803e3d6000fd5b505050506040513d601f19601f820116820180604052508101906120d39190612480565b50600954600c5460405163095ea7b360e01b81526001600160a01b0391821660048201526024810185905291169063095ea7b3906044016020604051808303816000875af1158015612129573d6000803e3d6000fd5b505050506040513d601f19601f8201168201806040525081019061214d9190612480565b50600c546002546001600160a01b03918216916318cbafe591859160009186911661217a426103e861249d565b6040518663ffffffff1660e01b815260040161219a959493929190612757565b6000604051808303816000875af11580156121b9573d6000803e3d6000fd5b505050506040513d6000823e601f3d908101601f191682016040526121e19190810190612634565b505b505050565b600080546001600160a01b038381166001600160a01b0319831681178455604051919092169283917f8be0079c531659141344cd1fd0a4f28419497f9722a3daafe3b4186f6b6457e09190a35050565b60006020828403121561224a57600080fd5b5035919050565b6000806040838503121561226457600080fd5b50508035926020909101359150565b80356001600160a01b038116811461228a57600080fd5b919050565b6000602082840312156122a157600080fd5b6122aa82612273565b9392505050565b8015158114611f2557600080fd5b600080604083850312156122d257600080fd5b8235915060208301356122e4816122b1565b809150509250929050565b60008060006060848603121561230457600080fd5b505081359360208301359350604090920135919050565b6000806040838503121561232e57600080fd5b61233783612273565b946020939093013593505050565b803561ffff8116811461228a57600080fd5b600080600080600060a0868803121561236f57600080fd5b8535945061237f60208701612345565b935061238d60408701612345565b9250606086013561239d816122b1565b91506123ab60808701612273565b90509295509295909350565b6000602082840312156123c957600080fd5b5051919050565b634e487b7160e01b600052601160045260246000fd5b60008261240357634e487b7160e01b600052601260045260246000fd5b500490565b6000816000190483118215151615612422576124226123d0565b500290565b6020808252818101527f4f776e61626c653a2063616c6c6572206973206e6f7420746865206f776e6572604082015260600190565b6001600160a01b039384168152919092166020820152604081019190915260600190565b60006020828403121561249257600080fd5b81516122aa816122b1565b600082198211156124b0576124b06123d0565b500190565b6020808252602a908201527f5061796d656e743a204c6573736f6e2077697468207468697320696420646f656040820152691cdb89dd08195e1a5cdd60b21b606082015260800190565b6020808252601a908201527f5061796d656e743a204e6f7468696e6720746f206368616e6765000000000000604082015260600190565b60208082526022908201527f5061796d656e743a204c6573736f6e206973206e6f7720756e617661696c61626040820152616c6560f01b606082015260800190565b634e487b7160e01b600052604160045260246000fd5b634e487b7160e01b600052603260045260246000fd5b6000828210156125b6576125b66123d0565b500390565b600081518084526020808501945080840160005b838110156125f45781516001600160a01b0316875295820195908201906001016125cf565b509495945050505050565b84815260806020820152600061261860808301866125bb565b6001600160a01b03949094166040830152506060015292915050565b6000602080838503121561264757600080fd5b825167ffffffffffffffff8082111561265f57600080fd5b818501915085601f83011261267357600080fd5b81518181111561268557612685612578565b8060051b604051601f19603f830116810181811085821117156126aa576126aa612578565b6040529182528482019250838101850191888311156126c857600080fd5b938501935b828510156126e6578451845293850193928501926126cd565b98975050505050505050565b9384526001600160a01b039290921660208401526040830152606082015260800190565b600061ffff808316818516808303821115612733576127336123d0565b01949350505050565b6000600019821415612750576127506123d0565b5060010190565b85815284602082015260a06040820152600061277660a08301866125bb565b6001600160a01b039490941660608301525060800152939250505056fe57f1f784213d2eac042adf5bb158688ea9ee5bac8cd95da1f03f316e4a6e5d95a2646970667358221220c30cc426e82fe0d90de54247df6b9024ef255843722d8100e549b5852f06391d64736f6c634300080c00335061796d656e743a20506169722063616e27742062652061646472657373207a",
  "devdoc": {
    "kind": "dev",
    "methods": {
      "owner()": {
        "details": "Returns the address of the current owner."
      },
      "renounceOwnership()": {
        "details": "Leaves the contract without owner. It will not be possible to call `onlyOwner` functions anymore. Can only be called by the current owner. NOTE: Renouncing ownership will leave the contract without an owner, thereby removing any functionality that is only available to the owner."
      },
      "transferOwnership(address)": {
        "details": "Transfers ownership of the contract to a new account (`newOwner`). Can only be called by the current owner."
      }
    },
    "version": 1
  },
  "userdoc": {
    "kind": "user",
    "methods": {},
    "version": 1
  },
  "storageLayout": {
    "storage": [
      {
        "astId": 55,
        "contract": "contracts/Payment.sol:Payment",
        "label": "_owner",
        "offset": 0,
        "slot": "0",
        "type": "t_address"
      },
      {
        "astId": 3029,
        "contract": "contracts/Payment.sol:Payment",
        "label": "burnReserve",
        "offset": 0,
        "slot": "1",
        "type": "t_address"
      },
      {
        "astId": 3031,
        "contract": "contracts/Payment.sol:Payment",
        "label": "treasury",
        "offset": 0,
        "slot": "2",
        "type": "t_address"
      },
      {
        "astId": 3033,
        "contract": "contracts/Payment.sol:Payment",
        "label": "liquidityReserve",
        "offset": 0,
        "slot": "3",
        "type": "t_address"
      },
      {
        "astId": 3049,
        "contract": "contracts/Payment.sol:Payment",
        "label": "lesson",
        "offset": 0,
        "slot": "4",
        "type": "t_mapping(t_uint256,t_struct(Lessons)3044_storage)"
      },
      {
        "astId": 3053,
        "contract": "contracts/Payment.sol:Payment",
        "label": "subscribtionInfo",
        "offset": 0,
        "slot": "5",
        "type": "t_mapping(t_address,t_uint256)"
      },
      {
        "astId": 3059,
        "contract": "contracts/Payment.sol:Payment",
        "label": "lessonAvailability",
        "offset": 0,
        "slot": "6",
        "type": "t_mapping(t_address,t_mapping(t_uint256,t_bool))"
      },
      {
        "astId": 3061,
        "contract": "contracts/Payment.sol:Payment",
        "label": "lessonsId",
        "offset": 0,
        "slot": "7",
        "type": "t_uint256"
      },
      {
        "astId": 3066,
        "contract": "contracts/Payment.sol:Payment",
        "label": "freeTrialDuration",
        "offset": 0,
        "slot": "8",
        "type": "t_uint256"
      },
      {
        "astId": 3069,
        "contract": "contracts/Payment.sol:Payment",
        "label": "token",
        "offset": 0,
        "slot": "9",
        "type": "t_contract(IERC20)230"
      },
      {
        "astId": 3072,
        "contract": "contracts/Payment.sol:Payment",
        "label": "priceFeed",
        "offset": 0,
        "slot": "10",
        "type": "t_contract(AggregatorInterface)47"
      },
      {
        "astId": 3075,
        "contract": "contracts/Payment.sol:Payment",
        "label": "pair",
        "offset": 0,
        "slot": "11",
        "type": "t_contract(IApePair)1325"
      },
      {
        "astId": 3078,
        "contract": "contracts/Payment.sol:Payment",
        "label": "router",
        "offset": 0,
        "slot": "12",
        "type": "t_contract(IApeRouter02)1721"
      },
      {
        "astId": 3085,
        "contract": "contracts/Payment.sol:Payment",
        "label": "subscribtionPrice",
        "offset": 0,
        "slot": "13",
        "type": "t_mapping(t_uint256,t_uint256)"
      }
    ],
    "types": {
      "t_address": {
        "encoding": "inplace",
        "label": "address",
        "numberOfBytes": "20"
      },
      "t_bool": {
        "encoding": "inplace",
        "label": "bool",
        "numberOfBytes": "1"
      },
      "t_contract(AggregatorInterface)47": {
        "encoding": "inplace",
        "label": "contract AggregatorInterface",
        "numberOfBytes": "20"
      },
      "t_contract(IApePair)1325": {
        "encoding": "inplace",
        "label": "contract IApePair",
        "numberOfBytes": "20"
      },
      "t_contract(IApeRouter02)1721": {
        "encoding": "inplace",
        "label": "contract IApeRouter02",
        "numberOfBytes": "20"
      },
      "t_contract(IERC20)230": {
        "encoding": "inplace",
        "label": "contract IERC20",
        "numberOfBytes": "20"
      },
      "t_mapping(t_address,t_mapping(t_uint256,t_bool))": {
        "encoding": "mapping",
        "key": "t_address",
        "label": "mapping(address => mapping(uint256 => bool))",
        "numberOfBytes": "32",
        "value": "t_mapping(t_uint256,t_bool)"
      },
      "t_mapping(t_address,t_uint256)": {
        "encoding": "mapping",
        "key": "t_address",
        "label": "mapping(address => uint256)",
        "numberOfBytes": "32",
        "value": "t_uint256"
      },
      "t_mapping(t_uint256,t_bool)": {
        "encoding": "mapping",
        "key": "t_uint256",
        "label": "mapping(uint256 => bool)",
        "numberOfBytes": "32",
        "value": "t_bool"
      },
      "t_mapping(t_uint256,t_struct(Lessons)3044_storage)": {
        "encoding": "mapping",
        "key": "t_uint256",
        "label": "mapping(uint256 => struct Payment.Lessons)",
        "numberOfBytes": "32",
        "value": "t_struct(Lessons)3044_storage"
      },
      "t_mapping(t_uint256,t_uint256)": {
        "encoding": "mapping",
        "key": "t_uint256",
        "label": "mapping(uint256 => uint256)",
        "numberOfBytes": "32",
        "value": "t_uint256"
      },
      "t_struct(Lessons)3044_storage": {
        "encoding": "inplace",
        "label": "struct Payment.Lessons",
        "members": [
          {
            "astId": 3035,
            "contract": "contracts/Payment.sol:Payment",
            "label": "price",
            "offset": 0,
            "slot": "0",
            "type": "t_uint256"
          },
          {
            "astId": 3037,
            "contract": "contracts/Payment.sol:Payment",
            "label": "tutorPercent",
            "offset": 0,
            "slot": "1",
            "type": "t_uint16"
          },
          {
            "astId": 3039,
            "contract": "contracts/Payment.sol:Payment",
            "label": "profitPercent",
            "offset": 2,
            "slot": "1",
            "type": "t_uint16"
          },
          {
            "astId": 3041,
            "contract": "contracts/Payment.sol:Payment",
            "label": "available",
            "offset": 4,
            "slot": "1",
            "type": "t_bool"
          },
          {
            "astId": 3043,
            "contract": "contracts/Payment.sol:Payment",
            "label": "tutor",
            "offset": 5,
            "slot": "1",
            "type": "t_address"
          }
        ],
        "numberOfBytes": "64"
      },
      "t_uint16": {
        "encoding": "inplace",
        "label": "uint16",
        "numberOfBytes": "2"
      },
      "t_uint256": {
        "encoding": "inplace",
        "label": "uint256",
        "numberOfBytes": "32"
      }
    }
  }
}