{
  "address": "0x5fdd767F173465e886ceE3F38cA90A3FDe44F806",
  "abi": [
    {
      "inputs": [
        {
          "internalType": "address",
          "name": "_vrfCoordinator",
          "type": "address"
        },
        {
          "internalType": "address",
          "name": "_linkToken",
          "type": "address"
        },
        {
          "internalType": "address",
          "name": "_lottery",
          "type": "address"
        },
        {
          "internalType": "bytes32",
          "name": "_keyHash",
          "type": "bytes32"
        },
        {
          "internalType": "uint256",
          "name": "_fee",
          "type": "uint256"
        }
      ],
      "stateMutability": "nonpayable",
      "type": "constructor"
    },
    {
      "inputs": [],
      "name": "currentLotteryId",
      "outputs": [
        {
          "internalType": "uint256",
          "name": "",
          "type": "uint256"
        }
      ],
      "stateMutability": "view",
      "type": "function"
    },
    {
      "inputs": [
        {
          "internalType": "uint256",
          "name": "lotteryId",
          "type": "uint256"
        }
      ],
      "name": "getRandomNumber",
      "outputs": [
        {
          "internalType": "bytes32",
          "name": "requestId",
          "type": "bytes32"
        }
      ],
      "stateMutability": "nonpayable",
      "type": "function"
    },
    {
      "inputs": [],
      "name": "lottery",
      "outputs": [
        {
          "internalType": "address",
          "name": "",
          "type": "address"
        }
      ],
      "stateMutability": "view",
      "type": "function"
    },
    {
      "inputs": [],
      "name": "randomResult",
      "outputs": [
        {
          "internalType": "uint256",
          "name": "",
          "type": "uint256"
        }
      ],
      "stateMutability": "view",
      "type": "function"
    },
    {
      "inputs": [
        {
          "internalType": "bytes32",
          "name": "requestId",
          "type": "bytes32"
        },
        {
          "internalType": "uint256",
          "name": "randomness",
          "type": "uint256"
        }
      ],
      "name": "rawFulfillRandomness",
      "outputs": [],
      "stateMutability": "nonpayable",
      "type": "function"
    }
  ],
  "transactionHash": "0x16ccba25b0f6616d0f11b60ffe9a7c6eb50219e738fc937670be364aa6276a56",
  "args": [
    "0xa555fC018435bef5A13C6c6870a9d4C11DEC329C",
    "0x84b9B910527Ad5C03A9Ca831909E21e236EA7b06",
    "0xa7d3af854E456575115742E3B3308D134521cC2D",
    "0xcaf3c3727e033261d383b315559476f48034c13b18f8cafed4d871abe5049186",
    "100000000000000000"
  ],
  "numDeployments": 57,
  "solcInputHash": "c088c85e77389f55acfb9bbba5a4baa0",
  "bytecode": "0x60c060405234801561001057600080fd5b5060405161076738038061076783398101604081905261002f91610082565b6001600160a01b0394851660a052928416608052600155600291909155600680546001600160a01b031916919092161790556100d8565b80516001600160a01b038116811461007d57600080fd5b919050565b600080600080600060a0868803121561009a57600080fd5b6100a386610066565b94506100b160208701610066565b93506100bf60408701610066565b6060870151608090970151959894975095949392505050565b60805160a05161065d61010a6000396000818160df01526103d101526000818161022301526103a2015261065d6000f3fe608060405234801561001057600080fd5b50600436106100575760003560e01c806342619f661461005c5780636be4097c1461007857806394985ddd14610081578063b37217a414610096578063ba13a572146100a9575b600080fd5b61006560045481565b6040519081526020015b60405180910390f35b61006560055481565b61009461008f366004610518565b6100d4565b005b6100656100a436600461053a565b61015f565b6006546100bc906001600160a01b031681565b6040516001600160a01b03909116815260200161006f565b336001600160a01b037f000000000000000000000000000000000000000000000000000000000000000016146101515760405162461bcd60e51b815260206004820152601f60248201527f4f6e6c7920565246436f6f7264696e61746f722063616e2066756c66696c6c0060448201526064015b60405180910390fd5b61015b8282610325565b5050565b6006546000906001600160a01b031633146101bc5760405162461bcd60e51b815260206004820152601e60248201527f4f6e6c79204c6f74746572792063616e2063616c6c2066756e6374696f6e00006044820152606401610148565b60015461020b5760405162461bcd60e51b815260206004820152601860248201527f4d75737420686176652076616c6964206b6579206861736800000000000000006044820152606401610148565b6002546040516370a0823160e01b81523060048201527f00000000000000000000000000000000000000000000000000000000000000006001600160a01b0316906370a0823190602401602060405180830381865afa158015610272573d6000803e3d6000fd5b505050506040513d601f19601f820116820180604052508101906102969190610553565b10156102f85760405162461bcd60e51b815260206004820152602b60248201527f4e6f7420656e6f756768204c494e4b202d2066696c6c20636f6e74726163742060448201526a1dda5d1a0819985d58d95d60aa1b6064820152608401610148565b600380546001600160a01b03191633179055600582905560015460025461031f919061039e565b92915050565b6003546005546040516374bfe0b160e11b8152600481019190915260248101849052604481018390526001600160a01b039091169063e97fc16290606401600060405180830381600087803b15801561037d57600080fd5b505af1158015610391573d6000803e3d6000fd5b5050506004919091555050565b60007f00000000000000000000000000000000000000000000000000000000000000006001600160a01b0316634000aea07f00000000000000000000000000000000000000000000000000000000000000008486600060405160200161040e929190918252602082015260400190565b6040516020818303038152906040526040518463ffffffff1660e01b815260040161043b9392919061056c565b6020604051808303816000875af115801561045a573d6000803e3d6000fd5b505050506040513d601f19601f8201168201806040525081019061047e91906105d8565b5060008381526020818152604080832054815180840188905280830185905230606082015260808082018390528351808303909101815260a0909101909252815191830191909120868452929091526104d8906001610601565b6000858152602081815260409182902092909255805180830187905280820184905281518082038301815260609091019091528051910120949350505050565b6000806040838503121561052b57600080fd5b50508035926020909101359150565b60006020828403121561054c57600080fd5b5035919050565b60006020828403121561056557600080fd5b5051919050565b60018060a01b038416815260006020848184015260606040840152835180606085015260005b818110156105ae57858101830151858201608001528201610592565b818111156105c0576000608083870101525b50601f01601f19169290920160800195945050505050565b6000602082840312156105ea57600080fd5b815180151581146105fa57600080fd5b9392505050565b6000821982111561062257634e487b7160e01b600052601160045260246000fd5b50019056fea2646970667358221220165bd89880fe13461308772d87a734a65533555ad34f4fe6907e6d13a2e2e07564736f6c634300080c0033",
  "devdoc": {
    "kind": "dev",
    "methods": {},
    "version": 1
  },
  "userdoc": {
    "kind": "user",
    "methods": {
      "getRandomNumber(uint256)": {
        "notice": "Requests randomness from a user-provided seed"
      }
    },
    "version": 1
  },
  "storageLayout": {
    "storage": [
      {
        "astId": 79,
        "contract": "contracts/RandomNumberGenerator.sol:RandomNumberGenerator",
        "label": "nonces",
        "offset": 0,
        "slot": "0",
        "type": "t_mapping(t_bytes32,t_uint256)"
      },
      {
        "astId": 5670,
        "contract": "contracts/RandomNumberGenerator.sol:RandomNumberGenerator",
        "label": "keyHash",
        "offset": 0,
        "slot": "1",
        "type": "t_bytes32"
      },
      {
        "astId": 5672,
        "contract": "contracts/RandomNumberGenerator.sol:RandomNumberGenerator",
        "label": "fee",
        "offset": 0,
        "slot": "2",
        "type": "t_uint256"
      },
      {
        "astId": 5674,
        "contract": "contracts/RandomNumberGenerator.sol:RandomNumberGenerator",
        "label": "requester",
        "offset": 0,
        "slot": "3",
        "type": "t_address"
      },
      {
        "astId": 5676,
        "contract": "contracts/RandomNumberGenerator.sol:RandomNumberGenerator",
        "label": "randomResult",
        "offset": 0,
        "slot": "4",
        "type": "t_uint256"
      },
      {
        "astId": 5678,
        "contract": "contracts/RandomNumberGenerator.sol:RandomNumberGenerator",
        "label": "currentLotteryId",
        "offset": 0,
        "slot": "5",
        "type": "t_uint256"
      },
      {
        "astId": 5680,
        "contract": "contracts/RandomNumberGenerator.sol:RandomNumberGenerator",
        "label": "lottery",
        "offset": 0,
        "slot": "6",
        "type": "t_address"
      }
    ],
    "types": {
      "t_address": {
        "encoding": "inplace",
        "label": "address",
        "numberOfBytes": "20"
      },
      "t_bytes32": {
        "encoding": "inplace",
        "label": "bytes32",
        "numberOfBytes": "32"
      },
      "t_mapping(t_bytes32,t_uint256)": {
        "encoding": "mapping",
        "key": "t_bytes32",
        "label": "mapping(bytes32 => uint256)",
        "numberOfBytes": "32",
        "value": "t_uint256"
      },
      "t_uint256": {
        "encoding": "inplace",
        "label": "uint256",
        "numberOfBytes": "32"
      }
    }
  }
}