{
  "address": "0x9F9edC8fbb63166c5A76BEeB1B8A17E8317559c9",
  "abi": [
    {
      "inputs": [
        {
          "internalType": "contract IERC20",
          "name": "token_",
          "type": "address"
        }
      ],
      "stateMutability": "nonpayable",
      "type": "constructor"
    },
    {
      "anonymous": false,
      "inputs": [
        {
          "indexed": false,
          "internalType": "uint256",
          "name": "amount",
          "type": "uint256"
        },
        {
          "indexed": false,
          "internalType": "uint256",
          "name": "blockNumber",
          "type": "uint256"
        }
      ],
      "name": "Claimed",
      "type": "event"
    },
    {
      "anonymous": false,
      "inputs": [
        {
          "indexed": true,
          "internalType": "address",
          "name": "previousOwner",
          "type": "address"
        },
        {
          "indexed": true,
          "internalType": "address",
          "name": "newOwner",
          "type": "address"
        }
      ],
      "name": "OwnershipTransferred",
      "type": "event"
    },
    {
      "inputs": [],
      "name": "BLOCKS_PER_MONTH",
      "outputs": [
        {
          "internalType": "uint256",
          "name": "",
          "type": "uint256"
        }
      ],
      "stateMutability": "view",
      "type": "function"
    },
    {
      "inputs": [
        {
          "internalType": "uint256",
          "name": "amount_",
          "type": "uint256"
        }
      ],
      "name": "claim",
      "outputs": [],
      "stateMutability": "nonpayable",
      "type": "function"
    },
    {
      "inputs": [],
      "name": "claimedAmount",
      "outputs": [
        {
          "internalType": "uint256",
          "name": "",
          "type": "uint256"
        }
      ],
      "stateMutability": "view",
      "type": "function"
    },
    {
      "inputs": [],
      "name": "getUnlockedTokenAmount",
      "outputs": [
        {
          "internalType": "uint256",
          "name": "amount",
          "type": "uint256"
        }
      ],
      "stateMutability": "view",
      "type": "function"
    },
    {
      "inputs": [],
      "name": "lockedAmount",
      "outputs": [
        {
          "internalType": "uint256",
          "name": "",
          "type": "uint256"
        }
      ],
      "stateMutability": "view",
      "type": "function"
    },
    {
      "inputs": [],
      "name": "lockedPeriod",
      "outputs": [
        {
          "internalType": "uint256",
          "name": "",
          "type": "uint256"
        }
      ],
      "stateMutability": "view",
      "type": "function"
    },
    {
      "inputs": [],
      "name": "owner",
      "outputs": [
        {
          "internalType": "address",
          "name": "",
          "type": "address"
        }
      ],
      "stateMutability": "view",
      "type": "function"
    },
    {
      "inputs": [],
      "name": "renounceOwnership",
      "outputs": [],
      "stateMutability": "nonpayable",
      "type": "function"
    },
    {
      "inputs": [],
      "name": "startBlock",
      "outputs": [
        {
          "internalType": "uint256",
          "name": "",
          "type": "uint256"
        }
      ],
      "stateMutability": "view",
      "type": "function"
    },
    {
      "inputs": [],
      "name": "token",
      "outputs": [
        {
          "internalType": "contract IERC20",
          "name": "",
          "type": "address"
        }
      ],
      "stateMutability": "view",
      "type": "function"
    },
    {
      "inputs": [
        {
          "internalType": "address",
          "name": "newOwner",
          "type": "address"
        }
      ],
      "name": "transferOwnership",
      "outputs": [],
      "stateMutability": "nonpayable",
      "type": "function"
    },
    {
      "inputs": [],
      "name": "unlockedPerMonth",
      "outputs": [
        {
          "internalType": "uint256",
          "name": "",
          "type": "uint256"
        }
      ],
      "stateMutability": "view",
      "type": "function"
    }
  ],
  "transactionHash": "0x81ae3923f74911b4fd215dd1a7401e2b02d3d37786b2515d37524ed35ed49f68",
  "args": [
    "0xb2f7c9ef736Ebdb27AB37591Ed3aeBB20cbe9512"
  ],
  "numDeployments": 1,
  "solcInputHash": "2a61afb7569e91a29fc97580556ec7e8",
  "bytecode": "0x608060405261001060056024610149565b6001556a0ee3a5f48a68b55200000060025569d3c21bcecceda100000060055534801561003c57600080fd5b50604051610ac2380380610ac283398101604081905261005b91610176565b610064336100f9565b6001600160a01b0381166100d05760405162461bcd60e51b815260206004820152602960248201527f5465616d3a20546f6b656e20616464726573732063616e27742062652061646460448201526872657373207a65726f60b81b606482015260840160405180910390fd5b600680546001600160a01b0319166001600160a01b0392909216919091179055436004556101a6565b600080546001600160a01b038381166001600160a01b0319831681178455604051919092169283917f8be0079c531659141344cd1fd0a4f28419497f9722a3daafe3b4186f6b6457e09190a35050565b600081600019048311821515161561017157634e487b7160e01b600052601160045260246000fd5b500290565b60006020828403121561018857600080fd5b81516001600160a01b038116811461019f57600080fd5b9392505050565b61090d806101b56000396000f3fe608060405234801561001057600080fd5b50600436106100b45760003560e01c80638da5cb5b116100715780638da5cb5b1461010c5780639668ceb814610131578063b3d6e1191461013a578063c409084a14610143578063f2fde38b1461014b578063fc0c546a1461015e57600080fd5b8063379607f5146100b9578063432f33d7146100ce57806348cd4cb1146100ea57806363f5de76146100f35780636ab28bc8146100fb578063715018a614610104575b600080fd5b6100cc6100c7366004610739565b610171565b005b6100d760055481565b6040519081526020015b60405180910390f35b6100d760045481565b6100d76102e7565b6100d760025481565b6100cc61036c565b6000546001600160a01b03165b6040516001600160a01b0390911681526020016100e1565b6100d760035481565b6100d760015481565b6100d7600581565b6100cc610159366004610752565b6103a2565b600654610119906001600160a01b031681565b6000546001600160a01b031633146101a45760405162461bcd60e51b815260040161019b9061077b565b60405180910390fd5b6101b0600560256107c6565b6004546101bd91906107e5565b4310156102165760405162461bcd60e51b815260206004820152602160248201527f5465616d3a204c6f636b656420706572696f64206469646e27742070617373656044820152601960fa1b606482015260840161019b565b60006102206102e7565b90508082111561027d5760405162461bcd60e51b815260206004820152602260248201527f5465616d3a20496e73756666696369616e7420756e6c6f636b656420746f6b656044820152616e7360f01b606482015260840161019b565b816003600082825461028f91906107e5565b90915550506006546102ab906001600160a01b0316338461043d565b604080518381524360208201527fc83b5086ce94ec8d5a88a9f5fea4b18a522bb238ed0d2d8abd959549a80c16b8910160405180910390a15050565b60006102f5600560256107c6565b60045461030291906107e5565b43101561030f5750600090565b600561031c8160246107c6565b60045461032991906107e5565b61033390436107fd565b61033d9190610814565b60055461034a91906107c6565b9050600254811061035a57506002545b60035461036790826107fd565b905090565b6000546001600160a01b031633146103965760405162461bcd60e51b815260040161019b9061077b565b6103a06000610494565b565b6000546001600160a01b031633146103cc5760405162461bcd60e51b815260040161019b9061077b565b6001600160a01b0381166104315760405162461bcd60e51b815260206004820152602660248201527f4f776e61626c653a206e6577206f776e657220697320746865207a65726f206160448201526564647265737360d01b606482015260840161019b565b61043a81610494565b50565b604080516001600160a01b038416602482015260448082018490528251808303909101815260649091019091526020810180516001600160e01b031663a9059cbb60e01b17905261048f9084906104e4565b505050565b600080546001600160a01b038381166001600160a01b0319831681178455604051919092169283917f8be0079c531659141344cd1fd0a4f28419497f9722a3daafe3b4186f6b6457e09190a35050565b6000610539826040518060400160405280602081526020017f5361666545524332303a206c6f772d6c6576656c2063616c6c206661696c6564815250856001600160a01b03166105b69092919063ffffffff16565b80519091501561048f57808060200190518101906105579190610836565b61048f5760405162461bcd60e51b815260206004820152602a60248201527f5361666545524332303a204552433230206f7065726174696f6e20646964206e6044820152691bdd081cdd58d8d9595960b21b606482015260840161019b565b60606105c584846000856105cf565b90505b9392505050565b6060824710156106305760405162461bcd60e51b815260206004820152602660248201527f416464726573733a20696e73756666696369656e742062616c616e636520666f6044820152651c8818d85b1b60d21b606482015260840161019b565b6001600160a01b0385163b6106875760405162461bcd60e51b815260206004820152601d60248201527f416464726573733a2063616c6c20746f206e6f6e2d636f6e7472616374000000604482015260640161019b565b600080866001600160a01b031685876040516106a39190610888565b60006040518083038185875af1925050503d80600081146106e0576040519150601f19603f3d011682016040523d82523d6000602084013e6106e5565b606091505b50915091506106f5828286610700565b979650505050505050565b6060831561070f5750816105c8565b82511561071f5782518084602001fd5b8160405162461bcd60e51b815260040161019b91906108a4565b60006020828403121561074b57600080fd5b5035919050565b60006020828403121561076457600080fd5b81356001600160a01b03811681146105c857600080fd5b6020808252818101527f4f776e61626c653a2063616c6c6572206973206e6f7420746865206f776e6572604082015260600190565b634e487b7160e01b600052601160045260246000fd5b60008160001904831182151516156107e0576107e06107b0565b500290565b600082198211156107f8576107f86107b0565b500190565b60008282101561080f5761080f6107b0565b500390565b60008261083157634e487b7160e01b600052601260045260246000fd5b500490565b60006020828403121561084857600080fd5b815180151581146105c857600080fd5b60005b8381101561087357818101518382015260200161085b565b83811115610882576000848401525b50505050565b6000825161089a818460208701610858565b9190910192915050565b60208152600082518060208401526108c3816040850160208701610858565b601f01601f1916919091016040019291505056fea2646970667358221220ffa8f2841f5997d38ea9e6dd08f42c7a1cde102ad9b9b3311b181656d87e2a8764736f6c634300080c0033",
  "devdoc": {
    "kind": "dev",
    "methods": {
      "owner()": {
        "details": "Returns the address of the current owner."
      },
      "renounceOwnership()": {
        "details": "Leaves the contract without owner. It will not be possible to call `onlyOwner` functions anymore. Can only be called by the current owner. NOTE: Renouncing ownership will leave the contract without an owner, thereby removing any functionality that is only available to the owner."
      },
      "transferOwnership(address)": {
        "details": "Transfers ownership of the contract to a new account (`newOwner`). Can only be called by the current owner."
      }
    },
    "version": 1
  },
  "userdoc": {
    "kind": "user",
    "methods": {},
    "version": 1
  },
  "storageLayout": {
    "storage": [
      {
        "astId": 55,
        "contract": "contracts/Team.sol:Team",
        "label": "_owner",
        "offset": 0,
        "slot": "0",
        "type": "t_address"
      },
      {
        "astId": 5506,
        "contract": "contracts/Team.sol:Team",
        "label": "lockedPeriod",
        "offset": 0,
        "slot": "1",
        "type": "t_uint256"
      },
      {
        "astId": 5509,
        "contract": "contracts/Team.sol:Team",
        "label": "lockedAmount",
        "offset": 0,
        "slot": "2",
        "type": "t_uint256"
      },
      {
        "astId": 5511,
        "contract": "contracts/Team.sol:Team",
        "label": "claimedAmount",
        "offset": 0,
        "slot": "3",
        "type": "t_uint256"
      },
      {
        "astId": 5513,
        "contract": "contracts/Team.sol:Team",
        "label": "startBlock",
        "offset": 0,
        "slot": "4",
        "type": "t_uint256"
      },
      {
        "astId": 5516,
        "contract": "contracts/Team.sol:Team",
        "label": "unlockedPerMonth",
        "offset": 0,
        "slot": "5",
        "type": "t_uint256"
      },
      {
        "astId": 5519,
        "contract": "contracts/Team.sol:Team",
        "label": "token",
        "offset": 0,
        "slot": "6",
        "type": "t_contract(IERC20)816"
      }
    ],
    "types": {
      "t_address": {
        "encoding": "inplace",
        "label": "address",
        "numberOfBytes": "20"
      },
      "t_contract(IERC20)816": {
        "encoding": "inplace",
        "label": "contract IERC20",
        "numberOfBytes": "20"
      },
      "t_uint256": {
        "encoding": "inplace",
        "label": "uint256",
        "numberOfBytes": "32"
      }
    }
  }
}