{
  "address": "0xc30DF5cD15132f2a6456d5AeA82BEE5dD18F55F0",
  "abi": [
    {
      "inputs": [
        {
          "internalType": "address",
          "name": "_vrfCoordinator",
          "type": "address"
        },
        {
          "internalType": "address",
          "name": "_linkToken",
          "type": "address"
        },
        {
          "internalType": "address",
          "name": "_lottery",
          "type": "address"
        },
        {
          "internalType": "bytes32",
          "name": "_keyHash",
          "type": "bytes32"
        },
        {
          "internalType": "uint256",
          "name": "_fee",
          "type": "uint256"
        }
      ],
      "stateMutability": "nonpayable",
      "type": "constructor"
    },
    {
      "inputs": [],
      "name": "currentLotteryId",
      "outputs": [
        {
          "internalType": "uint256",
          "name": "",
          "type": "uint256"
        }
      ],
      "stateMutability": "view",
      "type": "function"
    },
    {
      "inputs": [
        {
          "internalType": "uint256",
          "name": "lotteryId",
          "type": "uint256"
        }
      ],
      "name": "getRandomNumber",
      "outputs": [
        {
          "internalType": "bytes32",
          "name": "requestId",
          "type": "bytes32"
        }
      ],
      "stateMutability": "nonpayable",
      "type": "function"
    },
    {
      "inputs": [],
      "name": "lottery",
      "outputs": [
        {
          "internalType": "address",
          "name": "",
          "type": "address"
        }
      ],
      "stateMutability": "view",
      "type": "function"
    },
    {
      "inputs": [],
      "name": "randomResult",
      "outputs": [
        {
          "internalType": "uint256",
          "name": "",
          "type": "uint256"
        }
      ],
      "stateMutability": "view",
      "type": "function"
    },
    {
      "inputs": [
        {
          "internalType": "bytes32",
          "name": "requestId",
          "type": "bytes32"
        },
        {
          "internalType": "uint256",
          "name": "randomness",
          "type": "uint256"
        }
      ],
      "name": "rawFulfillRandomness",
      "outputs": [],
      "stateMutability": "nonpayable",
      "type": "function"
    }
  ],
  "transactionHash": "0x826ed5faac0fbe08c7e3c500697500dfcaf017cab1e25eeb6a4fbd54faeef630",
  "args": [
    "0x2bce784e69d2Ff36c71edcB9F88358dB0DfB55b4",
    "0x326C977E6efc84E512bB9C30f76E30c160eD06FB",
    "0x000e738963DC9b705766387d7b3428dcB10b156A",
    "0x0476f9a745b61ea5c0ab224d3a6e4c99f0b02fce4da01143a4f70aa80ae76e8a",
    "100000000000000000"
  ],
  "numDeployments": 4,
  "solcInputHash": "4cab3ce1b0068c501f624c18d63595a9",
  "bytecode": "0x60c060405234801561001057600080fd5b506040516107a23803806107a283398101604081905261002f91610099565b606094851b6001600160601b031990811660a0529390941b909216608052600191909155600291909155600680546001600160a01b0319166001600160a01b039092169190911790556100ef565b80516001600160a01b038116811461009457600080fd5b919050565b600080600080600060a086880312156100b157600080fd5b6100ba8661007d565b94506100c86020870161007d565b93506100d66040870161007d565b6060870151608090970151959894975095949392505050565b60805160601c60a05160601c61067b6101276000396000818160df01526103e001526000818161022301526103b1015261067b6000f3fe608060405234801561001057600080fd5b50600436106100575760003560e01c806342619f661461005c5780636be4097c1461007857806394985ddd14610081578063b37217a414610096578063ba13a572146100a9575b600080fd5b61006560045481565b6040519081526020015b60405180910390f35b61006560055481565b61009461008f36600461055f565b6100d4565b005b6100656100a4366004610581565b61015f565b6006546100bc906001600160a01b031681565b6040516001600160a01b03909116815260200161006f565b336001600160a01b037f000000000000000000000000000000000000000000000000000000000000000016146101515760405162461bcd60e51b815260206004820152601f60248201527f4f6e6c7920565246436f6f7264696e61746f722063616e2066756c66696c6c0060448201526064015b60405180910390fd5b61015b8282610334565b5050565b6006546000906001600160a01b031633146101bc5760405162461bcd60e51b815260206004820152601e60248201527f4f6e6c79204c6f74746572792063616e2063616c6c2066756e6374696f6e00006044820152606401610148565b60015461020b5760405162461bcd60e51b815260206004820152601860248201527f4d75737420686176652076616c6964206b6579206861736800000000000000006044820152606401610148565b6002546040516370a0823160e01b81523060048201527f00000000000000000000000000000000000000000000000000000000000000006001600160a01b0316906370a082319060240160206040518083038186803b15801561026d57600080fd5b505afa158015610281573d6000803e3d6000fd5b505050506040513d601f19601f820116820180604052508101906102a5919061059a565b10156103075760405162461bcd60e51b815260206004820152602b60248201527f4e6f7420656e6f756768204c494e4b202d2066696c6c20636f6e74726163742060448201526a1dda5d1a0819985d58d95d60aa1b6064820152608401610148565b600380546001600160a01b03191633179055600582905560015460025461032e91906103ad565b92915050565b6003546005546040516374bfe0b160e11b8152600481019190915260248101849052604481018390526001600160a01b039091169063e97fc16290606401600060405180830381600087803b15801561038c57600080fd5b505af11580156103a0573d6000803e3d6000fd5b5050506004919091555050565b60007f00000000000000000000000000000000000000000000000000000000000000006001600160a01b0316634000aea07f00000000000000000000000000000000000000000000000000000000000000008486600060405160200161041d929190918252602082015260400190565b6040516020818303038152906040526040518463ffffffff1660e01b815260040161044a939291906105b3565b602060405180830381600087803b15801561046457600080fd5b505af1158015610478573d6000803e3d6000fd5b505050506040513d601f19601f8201168201806040525081019061049c9190610536565b5060008381526020818152604080832054815180840188905280830185905230606082015260808082018390528351808303909101815260a0909101909252815191830191909120868452929091526104f690600161061f565b6000858152602081815260409182902092909255805180830187905280820184905281518082038301815260609091019091528051910120949350505050565b60006020828403121561054857600080fd5b8151801515811461055857600080fd5b9392505050565b6000806040838503121561057257600080fd5b50508035926020909101359150565b60006020828403121561059357600080fd5b5035919050565b6000602082840312156105ac57600080fd5b5051919050565b60018060a01b038416815260006020848184015260606040840152835180606085015260005b818110156105f5578581018301518582016080015282016105d9565b81811115610607576000608083870101525b50601f01601f19169290920160800195945050505050565b6000821982111561064057634e487b7160e01b600052601160045260246000fd5b50019056fea264697066735822122044b3d609c82b386ada3d6a81014dd07fd5ca6ff430245588f3239cde5d0370a964736f6c63430008070033",
  "devdoc": {
    "kind": "dev",
    "methods": {},
    "version": 1
  },
  "userdoc": {
    "kind": "user",
    "methods": {
      "getRandomNumber(uint256)": {
        "notice": "Requests randomness from a user-provided seed"
      }
    },
    "version": 1
  },
  "storageLayout": {
    "storage": [
      {
        "astId": 79,
        "contract": "contracts/RandomNumberGenerator.sol:RandomNumberGenerator",
        "label": "nonces",
        "offset": 0,
        "slot": "0",
        "type": "t_mapping(t_bytes32,t_uint256)"
      },
      {
        "astId": 273,
        "contract": "contracts/RandomNumberGenerator.sol:RandomNumberGenerator",
        "label": "keyHash",
        "offset": 0,
        "slot": "1",
        "type": "t_bytes32"
      },
      {
        "astId": 275,
        "contract": "contracts/RandomNumberGenerator.sol:RandomNumberGenerator",
        "label": "fee",
        "offset": 0,
        "slot": "2",
        "type": "t_uint256"
      },
      {
        "astId": 277,
        "contract": "contracts/RandomNumberGenerator.sol:RandomNumberGenerator",
        "label": "requester",
        "offset": 0,
        "slot": "3",
        "type": "t_address"
      },
      {
        "astId": 279,
        "contract": "contracts/RandomNumberGenerator.sol:RandomNumberGenerator",
        "label": "randomResult",
        "offset": 0,
        "slot": "4",
        "type": "t_uint256"
      },
      {
        "astId": 281,
        "contract": "contracts/RandomNumberGenerator.sol:RandomNumberGenerator",
        "label": "currentLotteryId",
        "offset": 0,
        "slot": "5",
        "type": "t_uint256"
      },
      {
        "astId": 283,
        "contract": "contracts/RandomNumberGenerator.sol:RandomNumberGenerator",
        "label": "lottery",
        "offset": 0,
        "slot": "6",
        "type": "t_address"
      }
    ],
    "types": {
      "t_address": {
        "encoding": "inplace",
        "label": "address",
        "numberOfBytes": "20"
      },
      "t_bytes32": {
        "encoding": "inplace",
        "label": "bytes32",
        "numberOfBytes": "32"
      },
      "t_mapping(t_bytes32,t_uint256)": {
        "encoding": "mapping",
        "key": "t_bytes32",
        "label": "mapping(bytes32 => uint256)",
        "numberOfBytes": "32",
        "value": "t_uint256"
      },
      "t_uint256": {
        "encoding": "inplace",
        "label": "uint256",
        "numberOfBytes": "32"
      }
    }
  }
}