{
  "address": "0x000e738963DC9b705766387d7b3428dcB10b156A",
  "abi": [
    {
      "inputs": [
        {
          "internalType": "uint8",
          "name": "_sizeOfLotteryNumbers",
          "type": "uint8"
        },
        {
          "internalType": "uint16",
          "name": "_maxValidNumberRange",
          "type": "uint16"
        }
      ],
      "stateMutability": "nonpayable",
      "type": "constructor"
    },
    {
      "anonymous": false,
      "inputs": [
        {
          "indexed": false,
          "internalType": "uint256",
          "name": "lotteryId",
          "type": "uint256"
        },
        {
          "indexed": false,
          "internalType": "uint256",
          "name": "ticketSupply",
          "type": "uint256"
        }
      ],
      "name": "LotteryClose",
      "type": "event"
    },
    {
      "anonymous": false,
      "inputs": [
        {
          "indexed": false,
          "internalType": "uint256",
          "name": "lotteryId",
          "type": "uint256"
        },
        {
          "indexed": false,
          "internalType": "uint256",
          "name": "ticketSupply",
          "type": "uint256"
        }
      ],
      "name": "LotteryOpen",
      "type": "event"
    },
    {
      "anonymous": false,
      "inputs": [
        {
          "indexed": true,
          "internalType": "address",
          "name": "previousOwner",
          "type": "address"
        },
        {
          "indexed": true,
          "internalType": "address",
          "name": "newOwner",
          "type": "address"
        }
      ],
      "name": "OwnershipTransferred",
      "type": "event"
    },
    {
      "anonymous": false,
      "inputs": [
        {
          "indexed": false,
          "internalType": "uint256",
          "name": "lotteryId",
          "type": "uint256"
        },
        {
          "indexed": false,
          "internalType": "bytes32",
          "name": "requestId",
          "type": "bytes32"
        }
      ],
      "name": "RequestNumbers",
      "type": "event"
    },
    {
      "anonymous": false,
      "inputs": [
        {
          "indexed": false,
          "internalType": "address",
          "name": "admin",
          "type": "address"
        },
        {
          "indexed": false,
          "internalType": "uint16",
          "name": "newMaxRange",
          "type": "uint16"
        }
      ],
      "name": "UpdatedMaxRange",
      "type": "event"
    },
    {
      "anonymous": false,
      "inputs": [
        {
          "indexed": false,
          "internalType": "address",
          "name": "admin",
          "type": "address"
        },
        {
          "indexed": false,
          "internalType": "uint16",
          "name": "newLotterySize",
          "type": "uint16"
        }
      ],
      "name": "UpdatedSizeOfLottery",
      "type": "event"
    },
    {
      "inputs": [
        {
          "internalType": "uint256",
          "name": "_startingTimestamp",
          "type": "uint256"
        },
        {
          "internalType": "uint256",
          "name": "_closingTimestamp",
          "type": "uint256"
        },
        {
          "internalType": "address",
          "name": "_ido",
          "type": "address"
        }
      ],
      "name": "createNewLotto",
      "outputs": [
        {
          "internalType": "uint256",
          "name": "lotteryId",
          "type": "uint256"
        }
      ],
      "stateMutability": "nonpayable",
      "type": "function"
    },
    {
      "inputs": [
        {
          "internalType": "uint256",
          "name": "_lotteryId",
          "type": "uint256"
        }
      ],
      "name": "drawWinningNumbers",
      "outputs": [],
      "stateMutability": "nonpayable",
      "type": "function"
    },
    {
      "inputs": [
        {
          "internalType": "uint256",
          "name": "_lotteryId",
          "type": "uint256"
        }
      ],
      "name": "getBasicLottoInfo",
      "outputs": [
        {
          "components": [
            {
              "internalType": "uint256",
              "name": "lotteryID",
              "type": "uint256"
            },
            {
              "internalType": "enum SweetpadLottery.Status",
              "name": "lotteryStatus",
              "type": "uint8"
            },
            {
              "internalType": "address",
              "name": "ido",
              "type": "address"
            },
            {
              "internalType": "uint256",
              "name": "startingTimestamp",
              "type": "uint256"
            },
            {
              "internalType": "uint256",
              "name": "closingTimestamp",
              "type": "uint256"
            },
            {
              "internalType": "uint16[]",
              "name": "winningNumbers",
              "type": "uint16[]"
            }
          ],
          "internalType": "struct SweetpadLottery.LottoInfo",
          "name": "",
          "type": "tuple"
        }
      ],
      "stateMutability": "view",
      "type": "function"
    },
    {
      "inputs": [],
      "name": "getMaxRange",
      "outputs": [
        {
          "internalType": "uint16",
          "name": "",
          "type": "uint16"
        }
      ],
      "stateMutability": "view",
      "type": "function"
    },
    {
      "inputs": [
        {
          "internalType": "uint16[]",
          "name": "_usersNumbers",
          "type": "uint16[]"
        },
        {
          "internalType": "uint16[]",
          "name": "_winningNumbers",
          "type": "uint16[]"
        }
      ],
      "name": "getNumberOfMatching",
      "outputs": [
        {
          "internalType": "uint8",
          "name": "noOfMatching",
          "type": "uint8"
        }
      ],
      "stateMutability": "pure",
      "type": "function"
    },
    {
      "inputs": [],
      "name": "getOpenLotteries",
      "outputs": [
        {
          "internalType": "uint256[]",
          "name": "openLotteries",
          "type": "uint256[]"
        }
      ],
      "stateMutability": "view",
      "type": "function"
    },
    {
      "inputs": [
        {
          "internalType": "uint256",
          "name": "_lotteryId",
          "type": "uint256"
        }
      ],
      "name": "getWiningNumbers",
      "outputs": [],
      "stateMutability": "nonpayable",
      "type": "function"
    },
    {
      "inputs": [
        {
          "internalType": "address",
          "name": "",
          "type": "address"
        }
      ],
      "name": "idoToId",
      "outputs": [
        {
          "internalType": "uint256",
          "name": "",
          "type": "uint256"
        }
      ],
      "stateMutability": "view",
      "type": "function"
    },
    {
      "inputs": [],
      "name": "maxValidRange_",
      "outputs": [
        {
          "internalType": "uint16",
          "name": "",
          "type": "uint16"
        }
      ],
      "stateMutability": "view",
      "type": "function"
    },
    {
      "inputs": [
        {
          "internalType": "uint256",
          "name": "_lotteryId",
          "type": "uint256"
        },
        {
          "internalType": "bytes32",
          "name": "_requestId",
          "type": "bytes32"
        },
        {
          "internalType": "uint256",
          "name": "_randomNumber",
          "type": "uint256"
        }
      ],
      "name": "numbersDrawn",
      "outputs": [],
      "stateMutability": "nonpayable",
      "type": "function"
    },
    {
      "inputs": [],
      "name": "owner",
      "outputs": [
        {
          "internalType": "address",
          "name": "",
          "type": "address"
        }
      ],
      "stateMutability": "view",
      "type": "function"
    },
    {
      "inputs": [
        {
          "internalType": "uint256",
          "name": "",
          "type": "uint256"
        }
      ],
      "name": "rendomNumbers",
      "outputs": [
        {
          "internalType": "uint256",
          "name": "",
          "type": "uint256"
        }
      ],
      "stateMutability": "view",
      "type": "function"
    },
    {
      "inputs": [],
      "name": "renounceOwnership",
      "outputs": [],
      "stateMutability": "nonpayable",
      "type": "function"
    },
    {
      "inputs": [
        {
          "internalType": "address",
          "name": "randomNumberGenerator_",
          "type": "address"
        }
      ],
      "name": "setRendomGenerator",
      "outputs": [],
      "stateMutability": "nonpayable",
      "type": "function"
    },
    {
      "inputs": [],
      "name": "sizeOfLottery_",
      "outputs": [
        {
          "internalType": "uint16",
          "name": "",
          "type": "uint16"
        }
      ],
      "stateMutability": "view",
      "type": "function"
    },
    {
      "inputs": [
        {
          "internalType": "address",
          "name": "newOwner",
          "type": "address"
        }
      ],
      "name": "transferOwnership",
      "outputs": [],
      "stateMutability": "nonpayable",
      "type": "function"
    },
    {
      "inputs": [
        {
          "internalType": "uint16",
          "name": "_newMaxRange",
          "type": "uint16"
        }
      ],
      "name": "updateMaxRange",
      "outputs": [],
      "stateMutability": "nonpayable",
      "type": "function"
    },
    {
      "inputs": [
        {
          "internalType": "uint16",
          "name": "_newSize",
          "type": "uint16"
        }
      ],
      "name": "updateSizeOfLottery",
      "outputs": [],
      "stateMutability": "nonpayable",
      "type": "function"
    }
  ],
  "transactionHash": "0xb4122c8c049d0e466c2fa61f4bcf9815bfde227b80cdabf30cdc707bae35c52d",
  "args": [
    10,
    10
  ],
  "numDeployments": 2,
  "solcInputHash": "fc67406349750891530e68897c6ed499",
  "bytecode": "0x60806040523480156200001157600080fd5b50604051620017da380380620017da833981016040819052620000349162000121565b6200003f33620000d1565b60ff82161580159062000055575061ffff811615155b620000a65760405162461bcd60e51b815260206004820152601960248201527f4c6f74746572792073657475702063616e6e6f74206265203000000000000000604482015260640160405180910390fd5b6004805461ffff92909216620100000263ffffffff1990921660ff909316929092171790556200016b565b600080546001600160a01b038381166001600160a01b0319831681178455604051919092169283917f8be0079c531659141344cd1fd0a4f28419497f9722a3daafe3b4186f6b6457e09190a35050565b600080604083850312156200013557600080fd5b825160ff811681146200014757600080fd5b602084015190925061ffff811681146200016057600080fd5b809150509250929050565b61165f806200017b6000396000f3fe608060405234801561001057600080fd5b50600436106101165760003560e01c8063abbcee36116100a2578063dbe069a211610071578063dbe069a214610261578063dc7b38f414610274578063e59bbab514610294578063e97fc162146102a6578063f2fde38b146102b957600080fd5b8063abbcee36146101e9578063d062b57c14610209578063d57f60d21461021c578063da4767551461024157600080fd5b8063692992ac116100e9578063692992ac1461017e578063715018a61461019f5780637c3fac26146101a75780638da5cb5b146101ba578063a624aa1b146101d557600080fd5b8063075dc4151461011b5780630c97fd451461014157806336e4276a14610156578063646046ad14610169575b600080fd5b6004546101299061ffff1681565b60405161ffff90911681526020015b60405180910390f35b61015461014f366004611391565b6102cc565b005b610154610164366004611391565b6104f3565b6101716105a2565b604051610138919061144a565b61019161018c3660046113d6565b610617565b604051908152602001610138565b6101546108cc565b6101546101b53660046112de565b610902565b6000546040516001600160a01b039091168152602001610138565b6004546101299062010000900461ffff1681565b6101916101f7366004611391565b60066020526000908152604090205481565b610154610217366004611376565b6109a4565b61022f61022a3660046112f9565b610ad3565b60405160ff9091168152602001610138565b61025461024f366004611391565b610b49565b60405161013891906114c3565b61015461026f366004611376565b610ca8565b6101916102823660046112de565b60076020526000908152604090205481565b60045462010000900461ffff16610129565b6101546102b43660046113aa565b610dc9565b6101546102c73660046112de565b610ec2565b6000546001600160a01b031633146102ff5760405162461bcd60e51b81526004016102f69061148e565b60405180910390fd5b6000818152600560205260409020600301544210156103725760405162461bcd60e51b815260206004820152602960248201527f43616e6e6f74207365742077696e6e696e67206e756d6265727320647572696e60448201526867206c6f747465727960b81b60648201526084016102f6565b600160008281526005602052604090206001015460ff16600381111561039a5761039a6115e7565b14806103c9575060008181526005602052604081206001015460ff1660038111156103c7576103c76115e7565b145b6104155760405162461bcd60e51b815260206004820181905260248201527f4c6f747465727920537461746520696e636f727265637420666f72206472617760448201526064016102f6565b600081815260056020526040908190206001908101805460ff19166002179055549051632cdc85e960e21b8152600481018390526001600160a01b039091169063b37217a490602401602060405180830381600087803b15801561047857600080fd5b505af115801561048c573d6000803e3d6000fd5b505050506040513d601f19601f820116820180604052508101906104b0919061135d565b60028190556040805183815260208101929092527ff8cdf8355a0f31bbad8998a631f5a75dcb3e475a010b34a111ed105fe88e751a91015b60405180910390a150565b600360008281526005602052604090206001015460ff16600381111561051b5761051b6115e7565b1461055d5760405162461bcd60e51b8152602060048201526012602482015271111c985dc81b9d5b58995c9cc8199a5c9cdd60721b60448201526064016102f6565b60008181526006602052604090205461057590610f5d565b60056000838152602001908152602001600020600401908051906020019061059e929190611153565b5050565b606060015b60035481116106135760008181526005602052604090206003015442101561060157600081815260056020526040902054826105e460018461157d565b815181106105f4576105f46115fd565b6020026020010181815250505b8061060b81611594565b9150506105a7565b5090565b600080546001600160a01b031633146106425760405162461bcd60e51b81526004016102f69061148e565b831580159061065057508284105b61069c5760405162461bcd60e51b815260206004820152601e60248201527f54696d657374616d707320666f72206c6f747465727920696e76616c6964000060448201526064016102f6565b6001600160a01b038216600090815260076020526040902054156107365760405162461bcd60e51b815260206004820152604560248201527f53776565747061644c6f74746572793a204c6f747465727920666f722063757260448201527f72656e742049444f20636f6e74726163742077617320616c726561647920637260648201526419585d195960da1b608482015260a4016102f6565b600354610744906001611540565b600381905560045490915060009061ffff1667ffffffffffffffff81111561076e5761076e611613565b604051908082528060200260200182016040528015610797578160200160208202803683370190505b50905060004286106107ab575060016107af565b5060005b60006040518060c001604052808581526020018360038111156107d4576107d46115e7565b8152602001866001600160a01b0316815260200188815260200187815260200184815250905080600560008681526020019081526020016000206000820151816000015560208201518160010160006101000a81548160ff02191690836003811115610842576108426115e7565b021790555060408201516001820180546001600160a01b0390921661010002610100600160a81b0319909216919091179055606082015160028201556080820151600382015560a082015180516108a3916004840191602090910190611153565b5050506001600160a01b0390941660009081526007602052604090208390555090949350505050565b6000546001600160a01b031633146108f65760405162461bcd60e51b81526004016102f69061148e565b61090060006110f0565b565b6000546001600160a01b0316331461092c5760405162461bcd60e51b81526004016102f69061148e565b6001600160a01b0381166109825760405162461bcd60e51b815260206004820152601d60248201527f436f6e7472616374732063616e6e6f742062652030206164647265737300000060448201526064016102f6565b600180546001600160a01b0319166001600160a01b0392909216919091179055565b6000546001600160a01b031633146109ce5760405162461bcd60e51b81526004016102f69061148e565b60045461ffff82811662010000909204161415610a2d5760405162461bcd60e51b815260206004820152601a60248201527f43616e6e6f742073657420746f2063757272656e742073697a6500000000000060448201526064016102f6565b60045462010000900461ffff16610a7e5760405162461bcd60e51b815260206004820152601560248201527404d61782072616e67652063616e6e6f74206265203605c1b60448201526064016102f6565b6004805463ffff000019166201000061ffff8416908102919091179091556040805133815260208101929092527f2a54f3414068117c88afc33d8e1dea5f6330df95e10ef41731baea27ab8a946e91016104e8565b6000805b8251811015610b4257828181518110610af257610af26115fd565b602002602001015161ffff16848281518110610b1057610b106115fd565b602002602001015161ffff161415610b3057610b2d600183611558565b91505b80610b3a81611594565b915050610ad7565b5092915050565b610b8c6040805160c0810190915260008082526020820190815260200160006001600160a01b031681526020016000815260200160008152602001606081525090565b600082815260056020908152604091829020825160c08101909352805483526001810154909183019060ff166003811115610bc957610bc96115e7565b6003811115610bda57610bda6115e7565b81526020016001820160019054906101000a90046001600160a01b03166001600160a01b03166001600160a01b03168152602001600282015481526020016003820154815260200160048201805480602002602001604051908101604052809291908181526020018280548015610c9857602002820191906000526020600020906000905b82829054906101000a900461ffff1661ffff1681526020019060020190602082600101049283019260010382029150808411610c5f5790505b5050505050815250509050919050565b6000546001600160a01b03163314610cd25760405162461bcd60e51b81526004016102f69061148e565b60045461ffff82811691161415610d2b5760405162461bcd60e51b815260206004820152601a60248201527f43616e6e6f742073657420746f2063757272656e742073697a6500000000000060448201526064016102f6565b60045461ffff16610d7e5760405162461bcd60e51b815260206004820152601860248201527f4c6f74746572792073697a652063616e6e6f742062652030000000000000000060448201526064016102f6565b6004805461ffff191661ffff83169081179091556040805133815260208101929092527f5c8df1f3422b7c16c64d7d3152fec41b6ea262c267376ae456770cd6763c34f691016104e8565b6001546001600160a01b03163314610e1b5760405162461bcd60e51b815260206004820152601560248201527427b7363c903930b73237b69033b2b732b930ba37b960591b60448201526064016102f6565b600260008481526005602052604090206001015460ff166003811115610e4357610e436115e7565b14610e855760405162461bcd60e51b8152602060048201526012602482015271111c985dc81b9d5b58995c9cc8199a5c9cdd60721b60448201526064016102f6565b816002541415610eac576000838152600560205260409020600101805460ff191660031790555b6000928352600660205260409092209190915550565b6000546001600160a01b03163314610eec5760405162461bcd60e51b81526004016102f69061148e565b6001600160a01b038116610f515760405162461bcd60e51b815260206004820152602660248201527f4f776e61626c653a206e6577206f776e657220697320746865207a65726f206160448201526564647265737360d01b60648201526084016102f6565b610f5a816110f0565b50565b60045460609060009061ffff1667ffffffffffffffff811115610f8257610f82611613565b604051908082528060200260200182016040528015610fab578160200160208202803683370190505b50905060005b60045461ffff16811015610b42576000808583604051602001610fde929190918252602082015260400190565b60408051601f19818403018152919052805160209091012090508060005b855181101561108b576000868281518110611019576110196115fd565b602002602001015161ffff1611156110795760045461104390839062010000900461ffff16611140565b61ffff16868281518110611059576110596115fd565b602002602001015161ffff16141561107957611076600185611540565b93505b8061108381611594565b915050610ffc565b50821561109a575050506110de565b6004546110b290829062010000900461ffff16611140565b8585815181106110c4576110c46115fd565b602002602001019061ffff16908161ffff16815250505050505b806110e881611594565b915050610fb1565b600080546001600160a01b038381166001600160a01b0319831681178455604051919092169283917f8be0079c531659141344cd1fd0a4f28419497f9722a3daafe3b4186f6b6457e09190a35050565b600061114c82846115af565b9392505050565b82805482825590600052602060002090600f016010900481019282156111ec5791602002820160005b838211156111bc57835183826101000a81548161ffff021916908361ffff160217905550926020019260020160208160010104928301926001030261117c565b80156111ea5782816101000a81549061ffff02191690556002016020816001010492830192600103026111bc565b505b506106139291505b8082111561061357600081556001016111f4565b80356001600160a01b038116811461121f57600080fd5b919050565b600082601f83011261123557600080fd5b8135602067ffffffffffffffff8083111561125257611252611613565b8260051b604051601f19603f8301168101818110848211171561127757611277611613565b6040528481528381019250868401828801850189101561129657600080fd5b600092505b858310156112c0576112ac816112cc565b84529284019260019290920191840161129b565b50979650505050505050565b803561ffff8116811461121f57600080fd5b6000602082840312156112f057600080fd5b61114c82611208565b6000806040838503121561130c57600080fd5b823567ffffffffffffffff8082111561132457600080fd5b61133086838701611224565b9350602085013591508082111561134657600080fd5b5061135385828601611224565b9150509250929050565b60006020828403121561136f57600080fd5b5051919050565b60006020828403121561138857600080fd5b61114c826112cc565b6000602082840312156113a357600080fd5b5035919050565b6000806000606084860312156113bf57600080fd5b505081359360208301359350604090920135919050565b6000806000606084860312156113eb57600080fd5b833592506020840135915061140260408501611208565b90509250925092565b600081518084526020808501945080840160005b8381101561143f57815161ffff168752958201959082019060010161141f565b509495945050505050565b6020808252825182820181905260009190848201906040850190845b8181101561148257835183529284019291840191600101611466565b50909695505050505050565b6020808252818101527f4f776e61626c653a2063616c6c6572206973206e6f7420746865206f776e6572604082015260600190565b602081528151602082015260006020830151600481106114f357634e487b7160e01b600052602160045260246000fd5b8060408401525060018060a01b03604084015116606083015260608301516080830152608083015160a083015260a083015160c08084015261153860e084018261140b565b949350505050565b60008219821115611553576115536115d1565b500190565b600060ff821660ff84168060ff03821115611575576115756115d1565b019392505050565b60008282101561158f5761158f6115d1565b500390565b60006000198214156115a8576115a86115d1565b5060010190565b6000826115cc57634e487b7160e01b600052601260045260246000fd5b500690565b634e487b7160e01b600052601160045260246000fd5b634e487b7160e01b600052602160045260246000fd5b634e487b7160e01b600052603260045260246000fd5b634e487b7160e01b600052604160045260246000fdfea26469706673582212200c14f5b4f776ce0bb6bb2900c3394c2600ff508192bfcce4e50113bfb524c91164736f6c63430008070033",
  "devdoc": {
    "kind": "dev",
    "methods": {
      "createNewLotto(uint256,uint256,address)": {
        "params": {
          "_closingTimestamp": "The block timestamp after which no more tickets          will be sold for the lottery. Note that this timestamp MUST          be after the starting block timestamp.",
          "_startingTimestamp": "The block timestamp for the beginning of the          lottery."
        }
      },
      "owner()": {
        "details": "Returns the address of the current owner."
      },
      "renounceOwnership()": {
        "details": "Leaves the contract without owner. It will not be possible to call `onlyOwner` functions anymore. Can only be called by the current owner. NOTE: Renouncing ownership will leave the contract without an owner, thereby removing any functionality that is only available to the owner."
      },
      "transferOwnership(address)": {
        "details": "Transfers ownership of the contract to a new account (`newOwner`). Can only be called by the current owner."
      }
    },
    "version": 1
  },
  "userdoc": {
    "kind": "user",
    "methods": {},
    "version": 1
  },
  "storageLayout": {
    "storage": [
      {
        "astId": 400,
        "contract": "contracts/SweetpadLottery.sol:SweetpadLottery",
        "label": "_owner",
        "offset": 0,
        "slot": "0",
        "type": "t_address"
      },
      {
        "astId": 6117,
        "contract": "contracts/SweetpadLottery.sol:SweetpadLottery",
        "label": "randomGenerator_",
        "offset": 0,
        "slot": "1",
        "type": "t_contract(IRandomNumberGenerator)8274"
      },
      {
        "astId": 6119,
        "contract": "contracts/SweetpadLottery.sol:SweetpadLottery",
        "label": "requestId_",
        "offset": 0,
        "slot": "2",
        "type": "t_bytes32"
      },
      {
        "astId": 6121,
        "contract": "contracts/SweetpadLottery.sol:SweetpadLottery",
        "label": "lotteryIdCounter_",
        "offset": 0,
        "slot": "3",
        "type": "t_uint256"
      },
      {
        "astId": 6123,
        "contract": "contracts/SweetpadLottery.sol:SweetpadLottery",
        "label": "sizeOfLottery_",
        "offset": 0,
        "slot": "4",
        "type": "t_uint16"
      },
      {
        "astId": 6125,
        "contract": "contracts/SweetpadLottery.sol:SweetpadLottery",
        "label": "maxValidRange_",
        "offset": 2,
        "slot": "4",
        "type": "t_uint16"
      },
      {
        "astId": 6150,
        "contract": "contracts/SweetpadLottery.sol:SweetpadLottery",
        "label": "allLotteries_",
        "offset": 0,
        "slot": "5",
        "type": "t_mapping(t_uint256,t_struct(LottoInfo)6145_storage)"
      },
      {
        "astId": 6154,
        "contract": "contracts/SweetpadLottery.sol:SweetpadLottery",
        "label": "rendomNumbers",
        "offset": 0,
        "slot": "6",
        "type": "t_mapping(t_uint256,t_uint256)"
      },
      {
        "astId": 6158,
        "contract": "contracts/SweetpadLottery.sol:SweetpadLottery",
        "label": "idoToId",
        "offset": 0,
        "slot": "7",
        "type": "t_mapping(t_address,t_uint256)"
      }
    ],
    "types": {
      "t_address": {
        "encoding": "inplace",
        "label": "address",
        "numberOfBytes": "20"
      },
      "t_array(t_uint16)dyn_storage": {
        "base": "t_uint16",
        "encoding": "dynamic_array",
        "label": "uint16[]",
        "numberOfBytes": "32"
      },
      "t_bytes32": {
        "encoding": "inplace",
        "label": "bytes32",
        "numberOfBytes": "32"
      },
      "t_contract(IRandomNumberGenerator)8274": {
        "encoding": "inplace",
        "label": "contract IRandomNumberGenerator",
        "numberOfBytes": "20"
      },
      "t_enum(Status)6130": {
        "encoding": "inplace",
        "label": "enum SweetpadLottery.Status",
        "numberOfBytes": "1"
      },
      "t_mapping(t_address,t_uint256)": {
        "encoding": "mapping",
        "key": "t_address",
        "label": "mapping(address => uint256)",
        "numberOfBytes": "32",
        "value": "t_uint256"
      },
      "t_mapping(t_uint256,t_struct(LottoInfo)6145_storage)": {
        "encoding": "mapping",
        "key": "t_uint256",
        "label": "mapping(uint256 => struct SweetpadLottery.LottoInfo)",
        "numberOfBytes": "32",
        "value": "t_struct(LottoInfo)6145_storage"
      },
      "t_mapping(t_uint256,t_uint256)": {
        "encoding": "mapping",
        "key": "t_uint256",
        "label": "mapping(uint256 => uint256)",
        "numberOfBytes": "32",
        "value": "t_uint256"
      },
      "t_struct(LottoInfo)6145_storage": {
        "encoding": "inplace",
        "label": "struct SweetpadLottery.LottoInfo",
        "members": [
          {
            "astId": 6132,
            "contract": "contracts/SweetpadLottery.sol:SweetpadLottery",
            "label": "lotteryID",
            "offset": 0,
            "slot": "0",
            "type": "t_uint256"
          },
          {
            "astId": 6135,
            "contract": "contracts/SweetpadLottery.sol:SweetpadLottery",
            "label": "lotteryStatus",
            "offset": 0,
            "slot": "1",
            "type": "t_enum(Status)6130"
          },
          {
            "astId": 6137,
            "contract": "contracts/SweetpadLottery.sol:SweetpadLottery",
            "label": "ido",
            "offset": 1,
            "slot": "1",
            "type": "t_address"
          },
          {
            "astId": 6139,
            "contract": "contracts/SweetpadLottery.sol:SweetpadLottery",
            "label": "startingTimestamp",
            "offset": 0,
            "slot": "2",
            "type": "t_uint256"
          },
          {
            "astId": 6141,
            "contract": "contracts/SweetpadLottery.sol:SweetpadLottery",
            "label": "closingTimestamp",
            "offset": 0,
            "slot": "3",
            "type": "t_uint256"
          },
          {
            "astId": 6144,
            "contract": "contracts/SweetpadLottery.sol:SweetpadLottery",
            "label": "winningNumbers",
            "offset": 0,
            "slot": "4",
            "type": "t_array(t_uint16)dyn_storage"
          }
        ],
        "numberOfBytes": "160"
      },
      "t_uint16": {
        "encoding": "inplace",
        "label": "uint16",
        "numberOfBytes": "2"
      },
      "t_uint256": {
        "encoding": "inplace",
        "label": "uint256",
        "numberOfBytes": "32"
      }
    }
  }
}